S00B00006D61696E2E686578DC
S1130000E4C1D0C5FDC1FCC1FBC1FAC1ADC59CC5ED
S1130010F7C1DCC5D1C5F4C1F3C1F2C1F1C1F0C16E
S1130020EFC143C245C247C249C25DC25CC25BC2A2
S11300305AC247C249C24BC24DC24FC254C253C234
S113004052C24EC270C272C274C276C278C27AC23E
S11300507CC27EC280C282C2C3C2C5C2C7C2C9C278
S1130060CBC2CDC2CFC2D1C2D3C2D5C2D7C2D9C2EC
S1130070DFC24E6F726D616C204469736369706C8A
S11300802E2000506F77657220757020202020206C
S1130090202020004175746F20486F6C646F766572
S11300A072202020004D616E75616C20486F6C6475
S11300B06F76657220005265636F766572204469BD
S11300C0736369706C2E003F3F4D6F6465206E6FE3
S11300D07420757365643F0044697361626C656480
S11300E0204469736369706C00556E6B6E776E2083
S11300F044697363204D6F646500446F696E6720C3
S113010066697865732020202020004E6F204750B8
S1130110532054696D652079657420003F3F537402
S1130120617475733F3F2020202020200050444FED
S11301305020697320746F6F2068696768004E6F80
S113014020757361626C6520536174732E200031D5
S113015020757361626C6520536174202020200037
S11301603220757361626C6520536174732E202094
S1130170003320757361626C6520736174732E2083
S113018020005361742E20697320756E757361624B
S11301906C6500545241494D2072656A63742E2087
S11301A066697800556E6B6E6F776E205374617458
S11301B075732020005068617365206C6F636B69F0
S11301C06E67202020004F7363696C6C6174207724
S11301D061726D2075700046727175656E63792069
S11301E06C6F636B696E6700506C6163696E672046
S11301F0505053202020202000496E6974204C6FF9
S11302006F702046696C74657200436F6D70656E23
S1130210736174672E204F43584F004469736369B8
S1130220706C20496E6163746976650020203F3FDD
S11302302020202020202020202020200052656320
S11302406F76657279206C6F6F7020202000436197
S11302506C696272203E20566F6C7461676500554C
S11302606E6B6E6F776E2061637469766974790062
S1130270444143206E656172207261696C202020C4
S113028000416E74656E6E61206F70656E20202073
S11302902000416E74656E6E612073686F727465C0
S11302A06420004E6F7420747261636B6720736105
S11302B074732E004E6F742064697363706C2E2007
S11302C04F73632E005375727665792070726F6771
S11302D07265737320004E6F2073746F72656420AF
S11302E0506F7369742E004C6561702073656320D0
S11302F070656E64696E6700496E2074657374205E
S11303006D6F64652020202000506F736974696FDD
S11303106E206973203F3F202000454550524F4DC9
S113032020696E76616C6964202000416C6D616E99
S113033061636820696E636F6D706C005050532068
S11303406E6F742067656E657261746400556E6BC0
S11303506E776E204D696E20416C61726D00437240
S113036069742E20416C61726D2030782020003F2A
S11303703F3F4A616E4665624D61724170724D61E4
S1130380794A756E4A756C4175675365704F63742D
S11303904E6F76446563004E6F207061636B6574C5
S11303A0202020202020730054626F6C7420436F3F
S11303B06E6E65637465643F0054626F6C74324C96
S11303C04344202847575229200011241FBECFE55B
S11303D0D2E0DEBFCDBF10E0A0E6B0E0E2E4FBE196
S11303E002C005900D92A639B107D9F711E0A6E92C
S11303F0B0E001C01D92A935B107E1F7B3D69FCB98
S1130400FFCDF89420919600309197007894C9011B
S11304100895809110018D3611F080E00895809147
S1130420110182958F7080939E001092100181E0DB
S113043008958091BC008C3A11F080E00895809179
S1130440C800882351F58091BE008330B9F0843010
S113045028F4813069F0823070F407C08530A1F04F
S1130460853078F08630B1F412C082E790E03DC068
S113047083E890E03AC084E990E037C085EA90E0F0
S113048034C086EB90E031C087EC90E02EC088ED5C
S113049090E02BC089EE90E028C0E82FF0E0E13135
S11304A0F10508F5EF5EFF4F09948AEF90E01DC057
S11304B08BE091E01AC08CE191E017C08DE291E0ED
S11304C014C08EE391E011C08FE491E00EC080E689
S11304D091E00BC081E791E008C082E891E005C09B
S11304E083E991E002C084EA91E090930D01809346
S11304F00C01F89480919600909197007894F89468
S113050080919600909197007894877090700397EB
S113051074F58091C900E82FF0E0EA30F10508F5A0
S1130520EE5DFF4F099485EB91E01DC086EC91E0F0
S11305301AC087ED91E017C088EE91E014C089EFEE
S113054091E011C08AE092E00EC08BE192E00BC012
S11305508CE292E008C08DE392E005C08EE492E064
S113056002C08FE592E090930D0180930C0190916D
S1130570C60080E02091C700AC01420F511D50938A
S11305809C0040939B004115510509F45EC0F8940A
S11305908091960090919700789487709070069758
S11305A00CF453C020919D002F5F61E070E0322F66
S11305B03F5FCB01022E02C0880F991F0A94E2F715
S11305C084239523892B11F4232FF1CF20939D00AD
S11305D0E22FF0E0ED30F10570F5E45DFF4F099492
S11305E080E792E020C081E892E01DC082E992E0B9
S11305F01AC083EA92E017C084EB92E014C085EC41
S113060092E011C086ED92E00EC087EE92E00BC03E
S113061088EF92E008C089E093E005C08AE193E0A6
S113062002C08BE293E090930D0180930C010DC006
S11306308CE393E0F8CF8DE493E090930D018093E5
S11306400C012D3010F010929D008091C40088237D
S113065021F48091C500882331F08EE593E09093D6
S11306600D0180930C011092BC0081E00895282FA5
S1130670892F922F08959B01AC01B82FA72F962F95
S113068088278070A070232F342F452F5527307072
S11306905070282B392B4A2B5B2BCA01AA27BB2766
S11306A0A90133272227282B392B4A2B5B2BB9018D
S11306B0CA0108952F923F924F925F926F927F9258
S11306C08F929F92AF92BF92CF92DF92EF92FF925E
S11306D00F931F931B012C0139014A012FE631E0CE
S11306E040E050E0A5D65B016C0184EC93EAA5EFF1
S11306F0BFEFA80EB91ECA1EDB1EAE0CBF1CC01E67
S1130700D11EC401B30123E131E040E050E090D6B2
S113071029E030E040E050E0BDD6A20EB31EC41E76
S1130720D51E89E090E0A0E0B0E0680E791E8A1E34
S11307309B1EC401B3012CE030E040E050E0AAD697
S1130740220D331D441D551DCA01B901B3E0660FC6
S1130750771F881F991FBA95D1F7621B730B840BFF
S1130760950B24E030E040E050E094D6A21AB30A9E
S1130770C40AD50A8EEE9FEFAFEFBFEF680E791E65
S11307808A1E9B1EC401B30127E030E040E050E024
S113079081D6220D331D441D551DCA01B90124E61D
S11307A030E040E050E076D62F5F3F4F4F4F5F4F31
S11307B0CA01B901660F771F881F991F620F731F43
S11307C0841F951F24E030E040E050E063D6A21A75
S11307D0B30AC40AD50AB501C6011F910F91FF904F
S11307E0EF90DF90CF90BF90AF909F908F907F90CD
S11307F06F905F904F903F902F9008952F923F926B
S11308004F925F926F927F928F929F92AF92BF921C
S1130810CF92DF92EF92FF920F931F93DF93CF93C8
S113082000D000D000D0CDB7DEB75B016C015E8391
S11308304D83190128018AED9AEAA5E2B0E0A80ED9
S1130840B91ECA1EDB1EC601B50112E0660F771F72
S1130850881F991F1A95D1F721EB3AE342E050E043
S113086019D629833A834B835C83B901CA0121EBEE
S11308703AE342E050E0DCD56D5F7F4F8F4F9F4FEE
S113088024E030E040E050E005D6A21AB30AC40ADE
S1130890D50A0894A11CB11CC11CD11CC601B50108
S11308A020EA3FE040E050E0C3D529E03BE446E1E4
S11308B050E0F0D539014A018EE190E0A0E0B0E0CB
S11308C0A80EB91ECA1EDB1EC401B30125EB35E018
S11308D040E050E0ADD524E030E040E050E0DAD52F
S11308E0A21AB30AC40AD50AC601B50120E530E04C
S11308F040E050E09DD52FE839E040E050E0CAD513
S113090079018A01C801B7012FE839E040E050E0DD
S11309108FD520EB3FEF4FEF5FEFBCD5A20EB31E98
S1130920C41ED51ED201AD92BD92CD92DC92139716
S1130930C801B7012BE030E040E050E0ABD55901ED
S11309406A0182E090E0A0E0B0E0E80EF91E0A1F20
S11309501B1FC601B50124EF3FEF4FEF5FEF68D5D2
S1130960E60EF71E081F191FD101ED92FD920D939B
S11309701C93139769817A818B819C8124E630E0F2
S113098040E050E055D56452734180409040660E7B
S1130990771E881E991EA60CB71CC81CD91CED8195
S11309A0FE81A082B182C282D38226960FB6F894C9
S11309B0DEBF0FBECDBFCF91DF911F910F91FF908E
S11309C0EF90DF90CF90BF90AF909F908F907F90EB
S11309D06F905F904F903F902F9008952F923F9289
S11309E04F925F926F927F928F929F92AF92BF923B
S11309F0CF92DF92EF92FF920F931F93DF93CF93E7
S1130A0000D000D0CDB7DEB75B016C0139014A01DB
S1130A10170128016CEB77E080E090E021E030E002
S1130A2040E050E0E6E0EE2EF12C012D112D42DEE7
S1130A3069837A838B839C839AE0AA0CBB1CCC1CAD
S1130A40DD1C9A95D1F7A60CB71CC81CD91C8601CD
S1130A50750183E0EE0CFF1C001F111F8A95D1F76E
S1130A60EA18FB080C091D09C201B10120E831E5AF
S1130A7041E050E00FD5E20EF31E041F151F8981DB
S1130A809A81AB81BC81E80EF91E0A1F1B1FB701B6
S1130A90C8010F900F900F900F90CF91DF911F918D
S1130AA00F91FF90EF90DF90CF90BF90AF909F9009
S1130AB08F907F906F905F904F903F902F9008950C
S1130AC01F93162F60E070E0133014F461E070E0BF
S1130AD0FC01E61BF70B242F332727FD30952E0F3F
S1130AE03F1FCF0164E070E0C2D4260F371FCF014F
S1130AF06CE97FEFBCD4260F371FCF0160E971E0AA
S1130B00B6D4260F371FE12FFF27E7FDF095E757EF
S1130B10FF4F8081992787FD9095820F931F67E08F
S1130B2070E0A5D41F91089510BC8DE489B988EBB9
S1130B308AB91FBC84E08EBD85E083BF82E889BF8B
S1130B4014BA8FEF85BB08951F920F920FB60F92C0
S1130B5011248F9383EC82BF10929A008F910F908F
S1130B600FBE0F901F9018951F920F920FB60F9201
S1130B7011248F939F9384EE98E49DBD8CBD809146
S1130B809600909197000196909397008093960019
S1130B9081E080939F009F918F910F900FBE0F90E3
S1130BA01F9018951F920F920FB60F9211240F9059
S1130BB00FBE0F901F9018951F920F920FB60F92B1
S1130BC011240F900FBE0F901F9018951F920F9233
S1130BD00FB60F9211242F938F939F93AF93BF93CC
S1130BE0EF93FF938BB18C7119F08FEF8093890091
S1130BF09CB1209189002F3F41F4903109F06EC0DF
S1130C00109289001092BB0069C08091BB008823B8
S1130C1009F450C0933009F053C08091960090912C
S1130C2097009093990080939800809114018F38D5
S1130C3041F5809115018C3A79F4253469F4809159
S1130C40BC008C3A49F0ACEBB0E0E5E1F1E08EE0B9
S1130C5001900D928150E1F7809115018B3A89F44E
S1130C6080918900823169F48091A0008B3A49F027
S1130C70A0EAB0E0E5E1F1E082E101900D9281505B
S1130C80E1F7809114018D3689F4809189008330D5
S1130C906CF0809110018D3649F0A0E1B1E0E4E1FF
S1130CA0F1E083E001900D928150E1F78FEF8093A2
S1130CB0890014C0903121F481E08093BB000EC000
S1130CC01092BB00253454F4E22FFF27E7FDF09582
S1130CD0EC5EFE4F90832F5F20938900FF91EF918C
S1130CE0BF91AF919F918F912F910F900FBE0F9055
S1130CF01F9018953F924F925F926F927F928F92BE
S1130D009F92AF92BF92CF92DF92EF92FF920F9396
S1130D101F93DF93CF93CDB7DEB761970FB6F894E7
S1130D20DEBF0FBECDBF80EA90E090930F018093A9
S1130D300E018091A0008B3A11F080E0FBC19091EC
S1130D40AF008091B0008093AF009093B00087E42F
S1130D5089838091A90080FF02C085E589839091F1
S1130D60A7008091A8008093A7009093A800909179
S1130D70A5008091A6008093A5009093A600809181
S1130D80A1009091A200A091A300B091A400292FEA
S1130D903A2F4B2F552730705070BA2FA92F982F08
S1130DA088278070A070282B392B4A2B5B2BCA0113
S1130DB0AA27BB27A90133272227282B392B4A2B03
S1130DC05B2B2093A1003093A2004093A300509387
S1130DD0A4008090B7009090B800A090B900B090A3
S1130DE0BA008091B3009091B400A091B500B09185
S1130DF0B600880E991EAA1EBB1E80E89AE3A9E0DD
S1130E00B0E0880E991EAA1EBB1E8091A700909187
S1130E10A800AA2797FDA095BA2F881A990AAA0AAA
S1130E20BB0A820E931EA41EB51E2091A50030910C
S1130E30A60040E050E0215030404040504060E087
S1130E4070E080E090E085017401C8DD6E877F87E3
S1130E50888B998BAE014E5F5F4F9E012A5F3F4F97
S1130E608E01065F1F4FCADC989B12C01092B70018
S1130E701092B8001092B9001092BA001092B30008
S1130E801092B4001092B5001092B60085E58983E3
S1130E90989971C020E13EE040E050E02093B70013
S1130EA03093B8004093B9005093BA00E0910E011A
S1130EB0F0910F0107851089C80163E04FE100DE5E
S1130EC0C82EC8016AE04FE1FBDD382E4A805B8002
S1130ED06C807D80DD24C7FCD094BFE1EB2EF12C27
S1130EE0EC18FD080027F7FC0095102FC301B20190
S1130EF023E030E040E050E0DDDB2E853F8548898B
S1130F005989261737074807590774F080E19EE08E
S1130F10A0E0B0E08093B3009093B400A093B50038
S1130F20B093B60083E58983832D992787FD909537
S1130F30AFE1EA2EF12CE81AF90A0027F7FC009534
S1130F40102FC301B2012AE030E040E050E0B2DBF0
S1130F502E853F8548895989261737074807590739
S1130F6054F01092B3001092B4001092B500109295
S1130F70B6008DE48983C0900E01D0900F018A8160
S1130F809B81D60150969C938E931F978E811E96BB
S1130F908C931E978A851D968C93C501B40120E815
S1130FA031E541E050E076D27B018C01C801B70104
S1130FB020E13EE040E050E06DD2B22EF6012487FD
S1130FC0622F70E080E090E020EF31EF4FEF5FEFB1
S1130FD02FD26E0D7F1D801F911F2CE330E040E067
S1130FE050E058D2D6011B962C931B97B294F0EF85
S1130FF0BF22EB188CE3289F90011124E21A1A9661
S1131000EC92EDB7FEB73C970FB6F894FEBF0FBE57
S1131010EDBF31960BEE10E0ADB7BEB712961C9340
S11310200E93119780E690E093838283D6011C96F9
S11310308C911C97848315821B968C9186831782CE
S1131040E0861186CE01019693878287A2D22091F1
S11310509E00EDB7FEB73C960FB6F894FEBF0FBEE8
S1131060EDBF222309F044C040910E0150910F01BD
S1131070DA0119968C9182FD3BC038970FB6F8942B
S1131080FEBF0FBEEDBF3196075F1F4FADB7BEB7B2
S113109012961C930E93119783E790E093838283B7
S11310A0DA011D968C911D97848315821F968D916C
S11310B09C915097805D9740978386836AD2EDB761
S11310C0FEB738960FB6F894FEBF0FBEEDBFE091A1
S11310D00E01F0910F01668583E0689FB001112431
S11310E061597C4FC801029643E050E024D21DC0F0
S11310F000D000D000D0EDB7FEB7319684EF90E079
S1131100ADB7BEB712969C938E9311978FE790E07C
S113111093838283248315823CD2EDB7FEB736963F
S11311200FB6F894FEBF0FBEEDBF10929E00109252
S1131130A00081E061960FB6F894DEBF0FBECDBF6C
S1131140CF91DF911F910F91FF90EF90DF90CF909F
S1131150BF90AF909F908F907F906F905F904F90D3
S11311603F90089588EE93E02CE231E0F901319745
S1131170F1F70197D9F7D8DC88EE93E02CE231E05F
S1131180F9013197F1F70197D9F78CE01CD1E1D03F
S113119089EB93E00BD180E29EE42CE231E0F9018B
S11311A03197F1F70197D9F77894A895F89420919D
S11311B096003091970078948091980090919900CE
S11311C00296821793074CF580919F00882329F19A
S11311D0C0D088EA93E0EAD080E061E0B0D087E94B
S11311E093E0E4D0F89480919600909197007894DD
S11311F02091980030919900821B930B6AEC70E067
S11312004AE050E0A7D18AE061E099D08AEC90E00E
S1131210C2D010929E0010929F000BD98823F1F047
S113122080910C0190910D01892BC1F080E061E067
S113123086D080910C0190910D01B8D08091C500A9
S1131240882361F090E06AEC70E040E150E082D1E4
S11312508EE061E074D08AEC90E09DD0DAD84ADD6B
S1131260882309F4A2CF80E060E069D08BEE90E09F
S113127092D09BCF662311F0D89A01C0D898D99800
S1131280D49AD59AD69AD79ADF98DE98DD98DC98C6
S113129087FDDF9A86FDDE9A85FDDD9A84FDDC9A62
S11312A0DA9A00C0DA98DF98DE98DD98DC9883FD3E
S11312B0DF9A82FDDE9A81FDDD9A80FDDC9ADA9A5E
S11312C000C0DA98DC9ADD9ADE9ADF9A08958823C2
S11312D011F0D89A01C0D898D99AD498D598D698AC
S11312E0D798DA9A00C0CC9B02C080E101C080E0AC
S11312F0CD998062CE998064CF998068DA9800C0D5
S1131300DA9A00C0CC998160CD998260CE998460CC
S1131310CF998860DA98089580E0D9DF87FDFCCF03
S113132086E090E00197F1F780E0D1DF08951F9304
S1131330182FF2DF812F60E09DDF1F91089566234F
S113134011F4805801C08054F2DF0895E5DF90E085
S1131350089581E0ECDF089582E0E9DF08951F93AA
S1131360182FDADF1A3041F4803410F080E001C025
S113137080E48058DCDF0DC0803111F480EC03C0C0
S1131380803519F480E860E075DFC6DF812F61E005
S113139071DF1F910895CF93DF93EC0101C0DFDF6C
S11313A089918823E1F7DF91CF910895CF93DF935B
S11313B0EC0101C0D4DFFE01219684918823D1F78A
S11313C0DF91CF9108951F93182FD09AD19AD29A72
S11313D0D49AD59AD69AD79A80E89BEB0197F1F7DD
S11313E0DD9ADC9ADA9A00C0DA9880E89AE30197E9
S11313F0F1F7DA9A00C0DA9880EC90E0FC013197BA
S1131400F1F7DA9A00C0DA98FC013197F1F7DC9829
S1131410DA9A00C0DA980197F1F788E288DF88E069
S113142086DF97DF86E083DF812F81DF1F910895B8
S1131430629FD001739FF001829FE00DF11D649FB4
S1131440E00DF11D929FF00D839FF00D749FF00D40
S1131450659FF00D9927729FB00DE11DF91F639FE1
S1131460B00DE11DF91FBD01CF011124089597FBB3
S1131470092E07260AD077FD04D027D006D00020F5
S11314801AF4709561957F4F0895F6F790958195BC
S11314909F4F089597FB092E05260ED057FD04D0C3
S11314A028D00AD0001C38F45095409530952195E9
S11314B03F4F4F4F5F4F0895F6F790958095709585
S11314C061957F4F8F4F9F4F0895AA1BBB1B51E11E
S11314D007C0AA1FBB1FA617B70710F0A61BB70BA0
S11314E0881F991F5A95A9F780959095BC01CD0145
S11314F00895A1E21A2EAA1BBB1BFD010DC0AA1F51
S1131500BB1FEE1FFF1FA217B307E407F50720F068
S1131510A21BB30BE40BF50B661F771F881F991FE3
S11315201A9469F760957095809590959B01AC012C
S1131530BD01CF010895FB01DC014150504048F04A
S113154005900D920020C9F701C01D9241505040F2
S1131550E0F70895FB019F01E8944230BCF0453266
S1131560ACF44A3029F497FB1EF4909581959F4F73
S1131570642F7727AADF805D8A330CF0895D81931D
S1131580CB010097A9F716F45DE251931082C901CB
S113159005C2AEE0B0E0EEECFAE0A8C20D891E8907
S11315A086E08C831A8309838FEF9FE79E838D8364
S11315B09E01275E3F4FCE0101966F89788DA90168
S11315C009D02F813885020F131FF80110822E963F
S11315D0E4E0A8C2ABE0B0E0EFEEFAE079C23C018F
S11315E02B015A01FC0117821682838181FD03C0FD
S11315F06FEF7FEFB9C19AE0892E1E010894211C78
S1131600311CF3012381F20123FD859123FF819194
S11316102F01882309F4A5C1853239F423FD85916E
S113162023FF81912F01853221F490E0B301C6D1CB
S1131630E8CF982FFF24EE249924FFE1FF15D0F082
S11316409B3269F09C3228F4903259F0933291F431
S11316500EC09D3249F0903369F441E024C052E059
S1131660F52A84E0F82A28C098E0F92A25C0E0E1A8
S1131670FE2A22C0F7FC29C0892F80538A3070F4D7
S1131680F6FE05C0989C902C1124980E15C0E89C79
S1131690E02C1124E80EF0E2FF2A0EC09E3229F459
S11316A0F6FC5FC140E4F42A07C09C3619F450E804
S11316B0F52A02C0983649F4F20123FD959123FFDF
S11316C091912F01992309F0B8CF892F8554833044
S11316D018F08052833038F444E050E0A40EB51E74
S11316E05FE359830FC0933631F0933779F0933524
S11316F009F052C01FC0F5018081898342E050E0A7
S1131700A40EB51E610101E010E011C0F501C08016
S1131710D180F6FC03C06FEF7FEF02C0692D70E04B
S113172042E050E0A40EB51EC6012DD18C015FE746
S1131730F52213C0F501C080D180F6FC03C06FEF21
S11317407FEF02C0692D70E042E050E0A40EB51EA8
S1131750C6010ED18C0150E8F52AF3FE06C018C06C
S113176080E290E0B3012AD1EA948E2D90E008172C
S11317701907B0F30DC0F601F7FC8591F7FE8191CE
S11317806F0190E0B3011AD1E110EA9401501040C6
S11317900115110581F7E2C0943611F0993661F50F
S11317A0F7FE08C0F501208131814281538184E034
S11317B090E00AC0F501808191819C01442737FDA6
S11317C04095542F82E090E0A80EB91E9FE6F922BE
S11317D057FF09C050954095309521953F4F4F4F85
S11317E05F4FE0E8FE2ACA01B901A1012AE030E016
S11317F011D1D82ED2183FC0953729F41F2D1F7E42
S11318002AE030E01DC01F2D197F9F3661F090370C
S113181020F4983509F0A5C00FC0903739F09837F7
S113182009F09FC004C028E030E00AC0106114FD34
S1131830146020E130E004C014FD166020E132E0C1
S113184017FF08C0F501608171818281938144E0B2
S113185050E008C0F50180819181BC0180E090E0F6
S113186042E050E0A40EB51EA101D4D0D82ED21867
S11318708FE7F82EF122F6FE0BC05EEFF522D914A5
S113188038F4F4FE07C0F2FC05C08FEEF82202C063
S11318901D2D01C0192DF4FE0DC0FE01ED0DF11D2D
S11318A08081803319F499EEF92208C01F5FF2FE9B
S11318B005C003C08F2D867809F01F5F0F2DF3FC40
S11318C013C0F0FE0EC01E1510F09D2C0AC09D2CF6
S11318D09E0C911A1E2D05C080E290E0B3016ED0DB
S11318E01F5F1E15C8F304C01E1510F4E11A01C0D1
S11318F0EE2404FF0EC080E390E0B3015FD002FF4A
S11319001BC001FD03C088E790E00EC088E590E0AD
S11319100BC0802F867881F001FF02C08BE201C0EA
S113192080E2F7FC8DE290E0B30148D005C080E38B
S113193090E0B30143D09A94D914C8F3DA94F10136
S1131940ED0DF11D808190E0B30138D0DD20B1F7B9
S113195005C080E290E0B30131D0EA94EE20C9F7EB
S113196050CEF30166817781CB012B96E2E1CCC0A6
S1131970FC010590615070400110D8F78095909556
S11319808E0F9F1F0895FC0161507040019001105B
S1131990D8F7809590958E0F9F1F0895DC01FC0168
S11319A0672F71917723E1F7329704C07C916D938F
S11319B070836291AE17BF07C8F308950F931F9306
S11319C0CF93DF938C01EB018B8181FF1BC082FFDE
S11319D00DC02E813F818C819D812817390764F4C5
S11319E0E881F9810193F983E88306C0E885F985E4
S11319F0802F0995892B31F48E819F8101969F83D5
S1131A008E8302C00FEF1FEFC801DF91CF911F91AA
S1131A100F910895FA01AA27283051F1203181F15C
S1131A20E8946F936E7F6E5F7F4F8F4F9F4FAF4FE2
S1131A30B1E03ED0B4E03CD0670F781F891F9A1FF5
S1131A40A11D680F791F8A1F911DA11D6A0F711DA9
S1131A50811D911DA11D20D009F468943F912AE0B5
S1131A60269F11243019305D3193DEF6CF0108959D
S1131A70462F4770405D4193B3E00FD0C9F7F6CFCE
S1131A80462F4F70405D4A3318F0495D31FD405296
S1131A90419302D0A9F7EACFB4E0A695979587952C
S1131AA077956795BA95C9F700976105710508950B
S1131AB09B01AC010A2E06945795479537952795B7
S1131AC0BA95C9F7620F731F841F951FA01D08954F
S1131AD02F923F924F925F926F927F928F929F923A
S1131AE0AF92BF92CF92DF92EF92FF920F931F9328
S1131AF0CF93DF93CDB7DEB7CA1BDB0B0FB6F894D9
S1131B00DEBF0FBECDBF09942A88398848885F8418
S1131B106E847D848C849B84AA84B984C884DF8089
S1131B20EE80FD800C811B81AA81B981CE0FD11D6D
S1131B300FB6F894DEBF0FBECDBFED010895F89443
S1051B40FFCFD1
S1131B42253032753A253032753A253032752531D1
S1131B527320002530327520202025303275002074
S1131B62536174733A25317500FF000302050003C3
S1091B7205010406020453
S9030000FC
