:06000000020076020BBCB9
:01000B0032C2
:03001300020C05D7
:03001B00020C587C
:030023000203C60F
:03002B000202B717
:03003300020C5963
:03003B00020C5A5A
:01004300328A
:03004B00020C5B49
:03005300020C5C40
:03005B00020C5D37
:03006300020C5E2E
:01006B003262
:03007300020C5F1D
:0500CF00C208C2097522
:0700D40038FF752DFAE4F579
:0300DB002FF530CE
:0300DE000200E13C
:0500E1001200E680FEA4
:0A00E60053D9BF1202821202681201
:0C00F00003A6D2AFC293D283750EF47544
:0800FC000F01758200120339A7
:0E01040075820012038E50F8120C6075820393
:05011200120CA8750BA2
:03011700BA750CAA
:08011A0017750D00758201123A
:040122000D6A750BE2
:03012600CF750C86
:0801290017750D00758202122A
:060131000D6A750EDC757D
:080137000F0575820012033967
:0E013F0075820012038E50F8758203120CA810
:07014D003086737546F6755C
:03015400471775D5
:09015700488090000275F00012CE
:070160001196740C2402F556
:0501670046E43400F540
:05016C00477548038502
:060171002D82120FB4758F
:0301770008027506
:03017A0009007504
:09017D000A00758201120D1475CF
:03018600460375B8
:030189004718759F
:09018C00488090000275F0001299
:040195001196750842
:03019900027509E3
:08019C0000750A0075820212D1
:0601A4000D14750EDC7560
:0801AA000F05758200120339F4
:0E01B20075820012038E50F8758203120CA89D
:0301C000120B9887
:0701C300C283C204C205C2A1
:0301CA0006750BAC
:0301CD0014750C9A
:0801D00018750D007582011283
:0601D8000D6A750EDC75D6
:0801DE000F05758200120339C0
:0C01E60075820012038E50F8D293750E43
:0A01F20032E4F50F758202120339A2
:0A01FC003000177582001203711223
:06020600055D750EB075E8
:09020C000F04758200120339C2CF
:0102150006E2
:0C02160075820012038E503620061F7502
:090222000EB0750F047582001284
:04022B000339750B13
:03022F0024750C27
:0802320018750D007582011220
:06023A000D6AD2068014DB
:0A024000750EF4750F0175820012AF
:09024A000339758203120CA8C2ED
:0102530006A4
:0B02540075820212038E50A0D203D26C
:09025F0002758202120371809401
:0E02680075D40175A41875E10175E24075A505
:0C0276007F43A80575E421D288D28A22BB
:0E028200538E9F53C8FE75CA0275CBFE85CA07
:0B029000CC85CBCD75C804D2AD7A033D
:0C029B00EA14FB75F003A42422F874029E
:0E02A70028F977007600087600188B02EA70BE
:0202B500E52240
:0E02B700C0E0C0F0C002C003C004C005C0001B
:0A02C500C0D075D000C2CFE52F4570
:0802CF00306009152F74FFB522
:0402D7002F021530AD
:0202DB007A00A7
:0302DD00BA030061
:0C02E0005033EA75F003A4FB2422F886DA
:0E02EC000408860518EC4D60151CBCFF011DB2
:0C02FA00A60408A60518EB24222402F834
:0403060076018008F4
:08030A00EB24222402F8760026
:030312000A80C896
:0E031500D0D0D000D005D004D003D002D0F05C
:03032300D0E032F5
:0A032600AA82AB83C2AF8A2F8B308E
:02033000D2AF4A
:07033200E52F453070FA22AF
:0C033900AA82C2A9EA75F003A4FA2422EB
:08034500F8A60E08A60FEA2439
:09034D00222402F87601D2A92253
:0C035600E582FA75F003A424222402F8CA
:090362008602BA01047A0180024E
:02036B007A0016
:04036D00EA24FF225D
:0C037100AA82C2A9EA75F003A4FA2422B3
:0C037D00F87600087600EA24222402F83A
:050389007602D2A9225A
:0C038E00E582FA75F003A424222402F892
:08039A00E67005740124FF2246
:0403A200E424FF222E
:0E03A600759810758D61538EF4438E08858D09
:0E03B4008B53890F438920D28ED299C298D2E2
:0403C2009CD2AC22FB
:0E03C600C0E0C082C083C0D075D01020980364
:0303D4000204EF31
:0B03D700AA99C298E52C24AB500975D0
:0603E2002B00752C000247
:0203E8000554BA
:0903EA00E52B24FA50030204EA99
:0503F300E52B252B2580
:0503F8002B9003FD73D2
:0703FD0002040F02043102AB
:06040400044002044F0257
:05040A00046702048EEE
:0C040F00BA100D752C01900017EAF07572
:04041B002B04800D21
:05041F00BA0302800891
:06042400752B01C20075FA
:02042A002C00A4
:05042C00C207020554A7
:09043100BA1006752B02020554F5
:06043A00752B00020554C1
:09044000BA0306752B03020554F2
:06044900752B00020554B2
:0C044F00BA100D752C01900017EAF07532
:04045B002B048003EB
:03045F00752B00FA
:05046200C20702055471
:05046700BA1002800341
:03046C00BA0309C7
:07046F00752B00752C000243
:0204760005542B
:06047800752B05AB2C05FD
:08047E002CEB2417F582E43495
:0804860000F583EAF0020554C1
:0A048E00BA1019E52C142417F582AA
:0B049800E43400F583E0FBBB100820FB
:0504A3000705D207026D
:0204A8000554F9
:0A04AA00BA0329E52C142417F5828B
:0B04B400E43400F583E0FBBB101820CF
:0504BF000715D200E565
:0704C4002C2417F582E4343B
:0904CB0000F583E4F0752B030237
:0204D4000554CD
:0604D600AB2C052CEB2409
:0A04DC0017F582E43400F583EAF01E
:0404E600C207806A5F
:0504EA00752B00806588
:0504EF0010990280607D
:0804F400200108C298C201C2F8
:0304FC0000805528
:0704FF00E52BB406028007A3
:07050600E52BB40749801743
:0A050D00759910752B07152C740169
:060517002417F531E43465
:04051D0000F532C2F1
:0305210007803020
:0A052400853182853283E0FA8A995E
:0A052E00BA100D20070AE52C24FE88
:060538005004D2078016FA
:07053E000531E4B5310205AF
:010545003283
:05054600C207AA2C15FC
:07054B002CEA7005C20175E6
:020552002C007B
:09055400D0D0D083D082D0E03277
:0C055D00900018E0FA900019E0FB7C020E
:0A056900C3EC952C501EEC24FE2478
:080573006CFDE43400FEEC24F1
:0A057B0017F582E43400F583E0FF79
:080585008D828E83F00C80DCF6
:0A058D00C200BA8F16BBAB02800556
:05059700BBAC0E800664
:06059C0090006C0205A9AD
:0605A20090006C02083716
:0105A8002230
:0C05A900AA82AB83AC2D74072AF582E413
:0C05B5003BF583E0FD8D3774082AF582C9
:0A05C100E43BF583E0FD8D3685363E
:0C05CB002E740A2AF582E43BF583E0F56B
:0C05D70033740B2AF582E43BF583E0F559
:0C05E30034740C2AF582E43BF583E0FF41
:0C05EF00740D2AF582E43BF583E0F5353D
:0E05FB00740E2AF582E43BF583E0FD1475F0E2
:0E06090003A4FD740F2AF582E43BF583E0FEA6
:0C0617008E3774102AF582E43BF583E076
:0C062300FA8A362430FA3086030206C33F
:06062F00E533C3952EF532
:090635003330E71D743C2533F558
:04063E00331534E557
:090642003430E710743C2534F556
:0B064B00341FEF30E70574182FFF1C70
:0E065600C374808CF063F08095F05038EC2F68
:05066400FF2087010FDB
:0E066900C374978FF063F08095F05025EF2456
:08067700E8FF0535AB35ED90FD
:0C067F0014F593FEC39B50137535000D5D
:0E068B00C3748B8DF063F08095F050037D00FA
:010699000A56
:0B069A00EC30E725EC2FFF2087010F5C
:0B06A500EF30E71A74182FFF1535E541
:0C06B0003530E70F1DED30E7037D0C1A1C
:0706BC00ED9014F593F535F4
:0A06C300E533FB3395E0FC740624D8
:0506CD0002F51BE434FE
:0406D20000F51C759E
:0C06D6001D028B828C83C002C005C0078F
:0E06E200120EFBD007D005D002900008E0FBFE
:0906F000BB20069000087430F0F4
:0C06F90090000A7420F0E534FE3395E018
:09070500FB74032402F51BE4342B
:04070E0000F51C7561
:0C0712001D028E828B83C002C005C00750
:0E071E00120EFBD007D005D002900005E0FBC4
:09072C00BB20069000057430F0BA
:0C073500900007743AF0EF3395E0FB757C
:030741001B027523
:030744001C007521
:0B0747001D028F828B83C002C00512D0
:0E0752000EFBD005D002900002E0FBBB20069B
:060760009000027430F06D
:0C076600900004743AF0E535FE3395E095
:09077200FB74092402F51BE434B8
:04077B0000F51C75F4
:0B077F001D028E828B83C002C0051299
:0E078A000EFBD005D00290000BE0FBBB20065A
:0607980090000B7430F02C
:0E079E00ED9014D093FB90000DF074012D909F
:0C07AC0014D093FB90000EF074022D900E
:0E07B80014D093FB90000FF0EA3395E0FB7431
:0707C6000E2402F51BE434D0
:0407CD0000F51C75A2
:0A07D1001D028A828B83120EFB903A
:0D07DB000010E0FABA20069000107430F013
:0E07E800900012E4F030861E9000127420F093
:0D07F6009000137447F09000147450F090C0
:0B08030000157453F0900016E4F02282
:0E080E009000127420F09000137443F02087C5
:09081C00089000147444F08006F9
:060825009000147453F072
:0C082B009000157454F0900016E4F022C8
:0708370085823985833A75C3
:03083E0008027538
:0308410009007536
:0B0844000A00758201120D14740A25D1
:0A084F0039F582E4353AF583E0FC48
:0C085900900001F0740B2539F582E435A5
:0A0865003AF583E0FC900000F090EB
:0E086F000000E0FCA3E0FDC42354E0CCC42351
:0E087D00CC6CCC54E0CC6CFD900000ECF0A3F1
:0C088B00EDF0900000E0FC74092539FD40
:0C089700E4353AFE8D828E83E0FF4204BF
:0808A300900000ECF0B20930F6
:0308AB000901221E
:0E08AE00758202C005C006120CA8D006D00547
:0E08BC00900000E0FCA3E0FFBC0005BF0002BE
:0208CA00804D5F
:0C08CC00E538B40548900000E0FCA3E013
:0508D800FF75460275EA
:0308DD004700755C
:0308E00048357523
:0A08E30049188C828F83C005C006FF
:0A08ED001210959208D006D00530D5
:0408F7000817750861
:0308FB000275097A
:0A08FE0000750A00758202C005C0F3
:0809080006120D14D006D00503
:090910008D828E83E0FD6001225E
:04091900300801227F
:0A091D000538C3E538648094864075
:04092700037538001C
:07092B00753F1C75401075BB
:080932004127E53830E703021C
:02093A000B8927
:0C093C00C374858538F063F08095F0509E
:0409480003020B8912
:05094C00E53825382507
:05095100389009567307
:07095600020968020990028A
:06095D0009BB0209E202E1
:050963000A0E020A1754
:0A096800853982853A83A3A3E0FFDE
:0A09720075F011A42489FAE434158D
:06097C00FB8A468B477563
:09098200488090000275F000129B
:05098B001196020B892A
:0A099000740D2539F582E4353AF5BF
:0C099A0083E0FF75F011A42421FAE4347E
:0509A60017FB8A468BDF
:0509AB00477548809033
:0909B000000275F000121196021C
:0209B9000B89A8
:0A09BB00853982853A83A3E0FF75B9
:0A09C500F011A42401FAE43415FB3C
:0509CF008A468B47750C
:0909D400488090000275F0001249
:0509DD001196020B89D8
:0A09E200740C2539F582E4353AF56E
:0B09EC0083E0FF75F011A42400FA74F2
:0709F7001635F0FB8A468B68
:0509FE004775488090E0
:090A0300000275F00012119602C8
:020A0C000B8954
:080A0E00753F20754064E4F51A
:010A1600419E
:080A1700E53F2539F582E435C5
:080A1F003AF583E0FF8F3EAFC2
:0C0A27003F7D0074012FFEE43DFAEE2537
:0A0A330039F582EA353AF583E0FA5E
:0B0A3D008A3D74022FFAE43DFBEA251D
:0A0A480039F582EB353AF583E0FA48
:0B0A52008A3C74032FFFE43DFDEF25FC
:0A0A5D0039F582ED353AF583E0FA31
:060A67008A3B853B8285FD
:060A6D003C83853DF0E52D
:060A73003E12140885820A
:030A79003F853B7B
:030A7C0042853C74
:030A7F0043853D6F
:030A820044853E6A
:0A0A850045AF3F7C008F828C831286
:0E0A8F00135FAC82AF83AAF0FBC004C007C0A7
:0A0A9D0002C0038542828543838571
:050AA70044F0E54512DA
:070AAC00116285824285837F
:050AB3004385F044F54D
:0A0AB80045E58124FCF581854082AC
:0C0AC20085418312136CAE82AF83AAF052
:0C0ACE00FBC006C007C002C003854282C6
:070ADA008543838544F0E52C
:0C0AE100451211D6AA82AB83ACF0FDE5F3
:0D0AED008124FCF5818A828B838CF0ED1250
:070AFA00137885824085831B
:0A0B010041E53824FC75F009A42436
:070B0B00E4FAE43417FB8A51
:040B1200468B477552
:090B1600488090000275F0001205
:090B1F001196AC3F7A0074062423
:050B280002F51BE4349E
:040B2D0000F51C753E
:0A0B31001D038C828A83120EFB90D4
:0A0B3B00000B742EF0740A2402F57A
:050B45001BE43400F583
:0A0B4A001CE53824FC25E0FA240223
:060B5400F51D85408285BD
:070B5A004183120EFB7A003B
:030B6100BA0300D4
:0B0B64005023740A2A2402F582E434B6
:0C0B6F0000F583E0FBBB2012740A2A246E
:0A0B7B0002F582E43400F5837430C3
:040B8500F00A80D81A
:040B89007508027574
:030B8D00090075E7
:080B90000A00758202020D1437
:020B98007A00E1
:030B9A00BA14008A
:0A0B9D005010EA2402F582E434004F
:080BA700F5837420F00A80EBD5
:0A0BAF00EA2402F582E43400F58325
:030BB900E4F02243
:0E0BBC00C0E0C0F0C082C083C002C003C0040D
:0E0BCA00C005C006C007C000C001C0D075D075
:060BD80000100202800C77
:0A0BDE00750E32E4F50F7582021265
:020BE8000339CF
:0E0BEA00D0D0D001D000D007D006D005D00466
:0D0BF800D003D002D083D082D0F0D0E03204
:0E0C0500C0E0C0F0C082C083C002C003C004C3
:0E0C1300C005C006C007C000C001C0D075D02B
:0C0C2100003003187582021203564010C8
:050C2D00C203D20575B1
:090C32000E96E4F50F7582021222
:020C3B0003397B
:0E0C3D00D0D0D001D000D007D006D005D00412
:0D0C4B00D003D002D083D082D0F0D0E032B0
:010C58003269
:010C59003268
:010C5A003267
:010C5B003266
:010C5C003265
:010C5D003264
:010C5E003263
:010C5F003262
:0E14D0004A616E4665624D61724170724D61F7
:0E14DE00794A756E4A756C4175675365704F9B
:0914EC0063744E6F7644656300E1
:0C14F5001F1C1F1E1F1E1F1F1E1F1E1F7E
:0E15010052583A204175746F2032442F334403
:0E150F0000000052583A2053696E676C652048
:0E151D0053617400000052583A20556E6B6EF8
:0E152B006F776E21212100000052583A2048AF
:0E1539006F72697A2E20283244290000525821
:0E1547003A2046756C6C20506F73283344298F
:0E1555000052583A20444750532052656665B4
:0E1563007200000052583A20436C6B20486F13
:0E1571006C64283244290052583A204F7665A7
:0A157F007264657420436C6B000079
:0E1589004D4F44453A204E6F726D616C00006C
:0E15970000000C4D4F44453A20506F776572AE
:0E15A5002D55700000004D4F44453A20417511
:0E15B300746F20486C647672004D4F44453AC8
:0E15C100204D616E2E20486C647672004D4FF6
:0E15CF0044453A205265636F766572790000DC
:0E15DD00004D4F44453A20556E6B6E6F776E91
:0E15EB00212121004D4F44453A20446973618F
:0715F900626C656400000054
:0E1600004750533A20446F696E672046697860
:0E160E006573004750533A204E6F20475053EB
:0E161C002054696D65004750533A20556E6B9F
:0E162A006E6F776E21212100004750533A2049
:0E16380050444F5020746F2048490000475026
:0E164600533A20556E6B6E6F776E2121210096
:0E165400004750533A20556E6B6E6F776E2133
:0E166200212100004750533A20556E6B6E6FE9
:0E167000776E21212100004750533A20556E1D
:0E167E006B6E6F776E21212100004750533AAA
:0E168C00204E6F205573652053415453004784
:0E169A0050533A204F6E6C792031205341544A
:0E16A80000004750533A204F6E6C79203220DC
:0E16B60053415453004750533A204F6E6C7905
:0E16C40020332053415453004750533A2053D3
:0E16D200415420556E757361626C0047505391
:0E16E0003A20556E6B6E6F776E21212100004F
:0E16EE004750533A20556E6B6E6F776E212178
:0E16FC002100004750533A20556E6B6E6F77F9
:0E170A006E21212100004750533A20545249CD
:09171800414D2052656A65630031
:0E1721004143543A205068617365204C6F6359
:0E172F006B00004143543A204F736320576112
:0E173D00726D757000004143543A204672658B
:0E174B0071204C6F636B0000004143543A2044
:0E175900506C6163696E67205050530041432D
:0E176700543A20496E69742E206C6F6F70002A
:0E177500004143543A20436F6D70656E7361FE
:0E178300746500004143543A20496E6163745E
:0E1791006976650000000C4143543A20556E05
:0E179F006B6E6F776E21212100004143543A9A
:0D17AD00205265636F76657279204C500004
:0E17BA0020545349504D6F6E2076302E332E42
:0717C8003420202020200046
:0E17CF00207777772E6B6F3462622E636F6D1A
:0717DD002020202020200045
:0E17E40054454D503A20200000444143205609
:0417F2003A20000099
:0D17F60054696D65205A6F6E65203A200021
:0E180300475053206F66667365743A20417536
:03181100746F00F1
:0E18140057616974696E6720666F72204750D5
:02182200530071
:0E1824002020204E6F204D6573736167652094
:0318320020200073
:0D0C600090000F120326759030120E4F9079
:0C0C6D000005120326120E4F9000011229
:090C79000326120E4F75902012A3
:0C0C82000E4F900001120326758228120C
:0C0C8E000DB975820C120DB975820612AA
:0C0C9A000DB9758201120DB99000020224
:020CA600032623
:0E0CA800AA82BA030C758201120DB990000ADF
:030CB60002032610
:0E0CB900EA30E02F758280C002120DB9D00221
:020CC7007B00B0
:030CC900BB140059
:0E0CCC00501EC002C003120E25D003D002E459
:0E0CDA0033758220C002C003120DEFD003D08C
:040CE800020B80DD9E
:0C0CEC00EA30E1237582C0120DB97A00D5
:030CF800BA14002B
:0E0CFB005016C002120E25D002E4337582207E
:0A0D0900C002120DEFD0020A80E5CF
:010D130022BD
:0C0D1400AA82BA010B7480250AF5821235
:040D20000DB9800980
:090D240074C0250AF582120DB914
:080D2D00150874FFB50802155A
:010D350009B4
:040D3600AA08AB0953
:050D3A000ABA00010BE4
:0D0D3F008A828B83E0FC6022C002C0031298
:0E0D4C000E25D003D002E4338A828B83E0FCB4
:0E0D5A00F582C002C003120DEFD003D002805C
:010D6800D1B9
:010D69002267
:0C0D6A00AA82BA010B7480250DF58212DC
:040D76000DB980092A
:090D7A0074C0250DF582120DB9BB
:040D8300AA0BAB0C00
:0E0D8700C002C003120E25D003D002E4338A4E
:0E0D9500828B83E493FCA3AA82AB838C82C082
:0E0DA30002C003120DEFD003D0028A828B83B0
:070DB100E493FC600280CF17
:010DB8002218
:0E0DB900AA82C002120E4ED00274F05AFB8BBA
:0E0DC70090C002120E5BD002C002120E61D06C
:0E0DD50002C002120E4FD002740F5AFBC4541B
:0A0DE300F0F590120E5B120E610293
:020DED000E4FA7
:0E0DEF00AA82C002120E4ED00274F05AFB8B84
:0E0DFD0090C002120E58D002C002120E61D039
:0E0E0B0002C002120E4FD002740F5AFBC454E4
:0A0E1900F0F590120E58120E61025F
:020E23000E4F70
:070E2500120E4B120E5B12CE
:020E2C000E5E58
:020E2E007A0543
:060E3000DAFED2927A0501
:0A0E3600DAFEA297920AC292200A87
:0B0E4000ED120E61E4A20A3324FF2231
:030E4B00D2972219
:010E4E002281
:040E4F00D2927A05BC
:050E5300DAFEC292224C
:030E5800D2902213
:030E5B00C2902220
:030E5E00D291220C
:030E6100C2912219
:0C0E6400AA82AB837C007D007E007F0032
:030E7000BF0600BA
:050E7300505FBC05000A
:0D0E7800505A8A828B83E0F86052B8300037
:070E85004005E824C6500FF0
:0B0E8C008A828B83E0F9B920028035D8
:040E97007C05803125
:0A0E9B000C75460AE4F5478D828EBF
:0E0EA50083C002C003C004C007C0001212E9DF
:0E0EB300AD82AE83D000D007D004D003D002B1
:0B0EC10053000F7900E82DFDE93EFE14
:080ECC000F0ABA009F0B809C85
:0C0ED4008A828B83E0701CEC6019AA1865
:0A0EE000AB19AC1A8A828B838CF0E8
:0D0EEA00ED1212D0A3EE1212D0758201227B
:040EF70075820022DE
:0A0EFB00AA82AB83E51D14FDE51D7E
:0A0F0500251BF582E4351CF583E49A
:030F0F00F08D065C
:0A0F1200EE20E76375460AE4F54798
:0E0F1C008A828B83C002C003C00612116DAF23
:0C0F2A0082A883D006D003D00275460ACE
:0C0F3600E4F5478F828883C002C003C02E
:0E0F420006C007C0001212E9A982AC83D000DD
:0E0F5000D007D006D003D002EAC399F9EB9C7B
:0C0F5E00FC8F028803EE251BF582E435B1
:0C0F6A001CF583430130E9F0EA4B600302
:030F76001E809941
:0A0F7900EA4B601BE51D14FD8D021C
:0B0F8300EA20E710EA251BF582E435A8
:090F8E001CF583743FF01A80EC9D
:010F97002237
:050F9800EE14FD8D02C6
:0C0F9D00EA20E7128A031AEB251BF582FC
:0A0FA900E4351CF5837420F080EAA3
:010FB300221B
:0C0FB400AA82AB488B04EA30E708C3E4D3
:060FC0009AFA7DFF800299
:020FC6007D01AB
:0A0FC8008C061CEE2546F582E43588
:070FD20047F583E4F08C06F3
:0E0FD900C374808EF063F08095F05033C2D563
:0B0FE70075F00AEA30E704B2D5F4040C
:060FF2008430D502F40476
:0D0FF800FF75F00AA4D39AF4F88F02EE25DD
:0A10050046F582E43547F5837430A8
:09100F0028F8F0EA60031E80C11C
:0E101800C374808AF063F08095F0501AEB14D8
:03102600FC8C023D
:0B102900EA20E710EA2546F582E435D6
:0910340047F583743FF01A80ECCB
:01103D002290
:0E103E00EE14FCBDFF38C374808CF063F080AC
:0C104C0095F050128C021CEA2546F5823B
:0A105800E43547F583742DF0801A8B
:05106200EB14FC8C0200
:0B106700EA20E710EA2546F582E43598
:0910720047F583743FF01A80EC8D
:01107B002252
:02107C008C02E4
:0C107E00EA20E7128A031AEB2546F582EF
:0A108A00E43547F5837420F080EA96
:011094002239
:0B109500AA82AB83EA4B700324FF2209
:0E10A0009000C1E0FC24F050059000C1E4F087
:0210AE007C00C4
:0E10B0009000C1E0FD8DF005F07E017F008014
:0110BE00062B
:0610BF00EE2EFEEF33FFF0
:0E10C500D5F0F7EA5206EB5207EE4F7022907C
:0E10D30000C174012DF09000C1E0FEBE1000BF
:0810E10050088C060CBE100043
:0210E90040C500
:0910EB009000C1E4F0E424FF22AE
:0A10F400ED75F011A42548FAE54956
:0E10FE0035F0FB8A828B83E49370139000C15F
:0A110C0074012DF0854682854783AB
:06111600E4F0E424FF22D6
:02111C007A0057
:03111E00BA110003
:0A112100502EEA2546FBE43547FC9A
:0C112B009000C1E0FD75F011A42548FD06
:0C113700E43549FEEA2DF582E43EF58324
:0E114300E493FD8B828C83F0ED60030A80CD77
:0E1151009000C1E0FA9000C174012AF0740110
:03115F0024FF2248
:0E183500524F4D20436865636B73756D2045FF
:0E18430072720052414D20436865636B20466F
:0E18510061696C656400506F77657253757045
:0E185F00706C79204661696C0046504741204C
:0E186D00436865636B204661696C200056433A
:0E187B004F206174207261696C000000000053
:0E1889000C56434F204E656172205261696C0F
:0E1897000000000C416E74656E6E61204F7093
:0E18A500656E000000000C416E74656E6E6191
:0E18B3002053686F7274656400004E6F7420DD
:0E18C100547261636B696E6720536174004E50
:0E18CF006F74204469736369706C696E696E92
:0E18DD00670053757276657920496E2050724F
:0E18EB006F677273004E6F2053746F726564E6
:0E18F90020506F730000000C4C65617020538E
:0E19070065632050656E64696E6700546573F9
:0E19150074204D6F6465000000000000000C9F
:0E1923000000000088043E000C0002006D0170
:0E1931000C010100000000000000000000009A
:06193F00000000000000A2
:0119450000A1
:0B116200A8811818C6B2E7C6021306E9
:05116D007A10E4FBFC18
:0E117200E58225E0F582E58333F583EB33FB60
:0A118000EC33FCEB9546F5F0EC951E
:09118A00474006FCABF043820172
:03119300DADD2280
:0811960085824985834A85F03A
:04119E004BAD46AE61
:0411A20047AF48A863
:0411A60049A94AAA5F
:0111AA004BF9
:0E11AB008D828E838FF01213ECFBA3AD82AE0B
:0E11B90083888289838AF0EB1212D0A3A88269
:0A11C700A983EB70DF854982854A99
:0511D10083854BF022B4
:0611D600121279BC0003B7
:0311DC000213A457
:0811DF00EF60FA30D502B2D135
:0811E700E583B4FF030213BA13
:0811EF00E582B4FF030213BA0C
:0B11F700258340072482400B0213A454
:0812020024831450030213BA07
:0E120A00F582EA8DF0A4A8F0EA8EF0A428F890
:0E121800E435F0F9EB8DF0A428E935F0F9E4A7
:0E12260033CA8FF0A429F9EA35F0FAEBF88EFE
:0E123400F0A429F9EA35F0FAE433FBEC8DF072
:0E124200A429F9EA35F0FAE43BFBE88FF0A4AA
:0E1250002AFAEB35F0FBE433CCFD8EF0A42A35
:0E125E00FAEB35F0FBE43CFCED8FF0A42BFB2B
:0A126C00EC35F0FC20E7031212A796
:03127600021383DD
:0D127900AA82AB83A2F73392D16002D2F7B4
:0E128600F582ACF0E58124F9F8E6FD08E6FEFD
:0E1294000886F008E6A2F73392D56002D2F782
:0512A200F583AFF0220E
:0600A500E478FFF6D8FD2F
:0212A7007804C9
:0E12A900EC700DC9CACBFCE58224F8F582D8A2
:0212B700F12222
:0212B90078209B
:0E12BB0020E7111582C3E933F9EA33FAEB3369
:0612C900FBEC33FCD8EC45
:0112CF0022FC
:080083007901E94400601B7AD9
:05008B00019019457809
:03009000C175AA8D
:0A00930000E493F2A308B800020590
:08009D00AAD9F4DAF275AAFFFA
:0E12D00020F71030F6118883A88220F507F66B
:0512DE00A883758300E8
:0112E30022E8
:0312E400F280F79E
:0212E700F022F3
:0B12E900E5828546F0A4C582C0F085B8
:0A12F40047F0A4D0F025F0C5838573
:0812FE0046F0A42583F58322CC
:0313060012127947
:091309007900E583B58202800D34
:0513120050031213D28C
:08131700E583C3958212145016
:08131F00E5D0C465D020E11700
:0E132700EA2DFAEB3EFBEC3FFC50097401127C
:061335001450EC4480FCA2
:03133B0002138317
:0E133E00C3EA9DFAEB9EFBEC9FFC500FC3E44C
:0D134C0099F9E49AFAE49BFBE49CFCB2D111
:061359001212A70213832B
:0800AB007800E84400600A79C6
:0300B3000075AA2B
:0600B60000E4F309D8FC90
:0800BC0078C1E84400600C79F2
:0B00C40001900000E4F0A3D8FCD9FA82
:0D135F00AC83AB827A007900748E02141901
:0C136C00E4AC83AB82FAF9748E021446E4
:0B1378007F8E121499F58385F082220D
:06138300B98003EA13B378
:0E1389004010EA2401FAE43BFBE43CFC500473
:041397007C800582CF
:09139B00BC000EBB000BBA0008F7
:0813A400E4F5F0F583F5822267
:0E13AC00A2D1E582138CF092F78B838A822205
:0D13BA00E4F583F58275F080F4A2D11322D2
:0B13C700E4F583F58275F0C0747F220E
:0E13D200E582C583F582A2D133A2D592D11354
:0C13E00092D5ECCFFCEBCEFBEACDFA225C
:0300760075814B46
:0A007900121493E58260030200E117
:0E13EC0020F71430F6148883A88220F507E657
:0613FA00A88375830022A8
:03140000E280F790
:03140300E493224D
:02140600E022E2
:081408007F86121499F582227F
:09141000FCABF0AA83A982749ED2
:0E141900F582C2D1EC30E716D2D1E9F42401FD
:0E142700F9EAF43400FAEBF43400FBECF43490
:0214350000FCB9
:061437001212A70213834C
:09143D00FCABF0AA83A982749EA5
:02144600C2D111
:08144800F5821212A7021383C2
:091450006040F82582500274FF8F
:0E145900F582E824F8501ECCCBCAF9E4CC246E
:0E146700F85014CBCAF9E4CB24F8500BCAF9A4
:09147500E4CA24F85003790022B6
:05147E0024086010F8D5
:0E148300C3EC13FCEB13FBEA13FAE913F9D8E0
:01149100F169
:011492002237
:04149300758200223C
:021497007F9E36
:091499001214BE30D1030213A4A9
:0E14A200C3EF9582500974FFF5F0F583F582D3
:0114B0002219
:0514B100790012145047
:0814B60089828A838BF0EC228D
:0D14BE00AA82AB83A2F73392D16002D2F76D
:0514CB00F582ACF022E7
:00000001FF
