:10000000E7C1DFC500C2FFC1FEC1FDC1BCC5ADC5B2
:10001000FAC1EBC5E0C5F7C1F6C1F5C1F4C1F3C142
:10002000F2C146C248C24AC24CC260C25FC25EC28E
:100030005DC24AC24CC24EC250C252C257C256C220
:1000400055C251C273C275C277C279C27BC27DC22A
:100050007FC281C283C285C2C6C2C8C2CAC2CCC264
:10006000CEC2D0C2D2C2D4C2D6C2D8C2DAC2DCC2D8
:10007000E2C2444953202D204E6F726D616C2020E6
:10008000202000444953202D20506F776572207541
:1000900070202000444953202D204120486F6C647B
:1000A0006F76657200444953202D204D20486F6CB7
:1000B000646F76657200444953202D205265636F4A
:1000C00076657279202000444953202D204E2F411F
:1000D0002020202020202000444953202D20446946
:1000E0007361626C6564202000444953202D2055C3
:1000F0006E6B6E6F776E20202000475053202D20AE
:10010000446F696E67206669782000475053202D40
:10011000204E6F2074696D652E2E200047505320AD
:100120002D203F3F5374617475733F3F0047505318
:10013000202D2050444F5020326869676800475096
:1001400053202D204E6F20736174732120200047AF
:100150005053202D206F6E6C792031207361740014
:10016000475053202D206F6E6C79203220736174BC
:1001700000475053202D206F6E6C7920332073611F
:100180007400475053202D20536174206572726FA4
:10019000722000475053202D20545241494D207267
:1001A0006A637400475053202D20556E6B6E6F7735
:1001B0006E202020005068617365206C6F636B694E
:1001C0006E67202020004F43584F207761726D20CA
:1001D00075700046727175656E6379206C6F636B24
:1001E000696E6700506C6163696E672050505320E0
:1001F0002020202000496E6974204C6F6F702046CB
:10020000696C74657200436F6D70656E73617467BD
:100210002E204F43584F004469736369706C204926
:100220006E6163746976650020203F3F20202020A6
:100230002020202020202020005265636F766572E8
:1002400079206C6F6F702020200043616C696272AE
:10025000203E20566F6C7461676500556E6B6E6F43
:10026000776E206163746976697479002120444156
:1002700043206E656172206D61782021002120414C
:100280006E74202D206F70656E20202021002120AB
:10029000416E74202D2073686F727420202100211C
:1002A000204E6F20736174732020202020202100B5
:1002B00021204E6F742064697363204F7363202183
:1002C000002120537572766579696E672E2E2E2077
:1002D000210021204E6F20506F736974696F6E206A
:1002E00020210021204C65617020736563207065BA
:1002F0006E6421002120496E2074657374206D6F37
:1003000064652021002120506F736974696F6E202D
:10031000203F3F2021002120454550524F4D206570
:1003200072726F722021002120416C6D616E6163D9
:10033000682065727220210021204E6F205050539A
:100340002020202020202021002120556E6B6E6F60
:10035000776E20416C61726D2100437269742E20AA
:10036000416C61726D2030782020003F3F3F4A6130
:100370006E4665624D61724170724D61794A756E6B
:100380004A756C4175675365704F63744E6F764460
:100390006563004E6F20636F6D6D732E2E004750A6
:1003A00053444F20436F6E6E65637465643F003C39
:1003B00020475053444F20535441545553203E003E
:1003C0002054534950207631205A4C314356440032
:1003D00011241FBECFE5D2E0DEBFCDBF10E0A0E606
:1003E000B0E0EAE0FDE102C005900D92A639B10748
:1003F000D9F711E0A6E9B0E001C01D92A935B10717
:10040000E1F7BFD680CCFCCDF894209196003091D6
:1004100097007894C9010895809110018D3611F0EC
:1004200080E008958091110182958F7080939E00E5
:100430001092100181E008958091BC008C3A11F077
:1004400080E008958091C800882351F58091BE0016
:100450008330B9F0843028F4813069F0823070F450
:1004600007C08530A1F0853078F08630B1F412C035
:1004700082E790E03DC083E890E03AC084E990E0F4
:1004800037C085EA90E034C086EB90E031C087EC5D
:1004900090E02EC088ED90E02BC089EE90E028C05F
:1004A000E82FF0E0E131F10508F5EF5EFF4F099428
:1004B0008AEF90E01DC08BE091E01AC08CE191E0E2
:1004C00017C08DE291E014C08EE391E011C08FE47B
:1004D00091E00EC080E691E00BC081E791E008C09A
:1004E00082E891E005C083E991E002C084EA91E0EE
:1004F00090930D0180930C01F89480919600909157
:1005000097007894F8948091960090919700789451
:1005100087709070039774F58091C900E82FF0E020
:10052000EA30F10508F5EE5DFF4F099485EB91E0A7
:100530001DC086EC91E01AC083ED91E017C084EEF7
:1005400091E014C085EF91E011C086E092E00EC00A
:1005500087E192E00BC088E292E008C089E392E074
:1005600005C08AE492E002C08BE592E090930D0111
:1005700080930C019091C60080E02091C700AC01EF
:10058000420F511D50939C0040939B004115510513
:1005900009F45EC0F8948091960090919700789449
:1005A0008770907006970CF453C020919D002F5FC8
:1005B00061E070E0322F3F5FCB01022E02C0880F56
:1005C000991F0A94E2F784239523892B11F4232F92
:1005D000F1CF20939D00E22FF0E0ED30F10570F5B2
:1005E000E45DFF4F09948CE692E020C08DE792E035
:1005F0001DC08EE892E01AC08FE992E017C080EB30
:1006000092E014C081EC92E011C082ED92E00EC045
:1006100083EE92E00BC084EF92E008C085E093E0A7
:1006200005C086E193E002C087E293E090930D015C
:1006300080930C010DC088E393E0F8CF89E493E048
:1006400090930D0180930C012D3010F010929D00BD
:100650008091C400882321F48091C500882331F063
:100660008AE593E090930D0180930C011092BC00F9
:1006700081E00895282F892F922F08959B01AC01C6
:10068000B82FA72F962F88278070A070232F342F84
:10069000452F552730705070282B392B4A2B5B2B58
:1006A000CA01AA27BB27A90133272227282B392BC8
:1006B0004A2B5B2BB901CA0108952F923F924F92AA
:1006C0005F926F927F928F929F92AF92BF92CF92E2
:1006D000DF92EF92FF920F931F931B012C013901C0
:1006E0004A012FE631E040E050E086D75B016C0123
:1006F00084EC93EAA5EFBFEFA80EB91ECA1EDB1E5D
:10070000AE0CBF1CC01ED11EC401B30123E131E0F9
:1007100040E050E071D729E030E040E050E09ED763
:10072000A20EB31EC41ED51E89E090E0A0E0B0E08A
:10073000680E791E8A1E9B1EC401B3012CE030E0B6
:1007400040E050E08BD7220D331D441D551DCA01DA
:10075000B901B3E0660F771F881F991FBA95D1F7CB
:10076000621B730B840B950B24E030E040E050E0FB
:1007700075D7A21AB30AC40AD50A8EEE9FEFAFEF5F
:10078000BFEF680E791E8A1E9B1EC401B30127E0CD
:1007900030E040E050E062D7220D331D441D551D6E
:1007A000CA01B90124E630E040E050E057D72F5F9E
:1007B0003F4F4F4F5F4FCA01B901660F771F881F28
:1007C000991F620F731F841F951F24E030E040E0E3
:1007D00050E044D7A21AB30AC40AD50AB501C6012B
:1007E0001F910F91FF90EF90DF90CF90BF90AF904F
:1007F0009F908F907F906F905F904F903F902F9041
:1008000008952F923F924F925F926F927F928F92B4
:100810009F92AF92BF92CF92DF92EF92FF920F938F
:100820001F93DF93CF9300D000D000D0CDB7DEB7B9
:100830005B016C015E834D83190128018AED9AEA00
:10084000A5E2B0E0A80EB91ECA1EDB1EC601B501A6
:1008500012E0660F771F881F991F1A95D1F721EBB9
:100860003AE342E050E0FAD629833A834B835C8333
:10087000B901CA0121EB3AE342E050E0BDD66D5F19
:100880007F4F8F4F9F4F24E030E040E050E0E6D6AE
:10089000A21AB30AC40AD50A0894A11CB11CC11C2F
:1008A000D11CC601B50120EA3FE040E050E0A4D6EB
:1008B00029E03BE446E150E0D1D639014A018EE11E
:1008C00090E0A0E0B0E0A80EB91ECA1EDB1EC40175
:1008D000B30125EB35E040E050E08ED624E030E077
:1008E00040E050E0BBD6A21AB30AC40AD50AC6013A
:1008F000B50120E530E040E050E07ED62FE839E059
:1009000040E050E0ABD679018A01C801B7012FE879
:1009100039E040E050E070D620EB3FEF4FEF5FEF63
:100920009DD6A20EB31EC41ED51ED201AD92BD929D
:10093000CD92DC921397C801B7012BE030E040E084
:1009400050E08CD659016A0182E090E0A0E0B0E06E
:10095000E80EF91E0A1F1B1FC601B50124EF3FEF69
:100960004FEF5FEF49D6E60EF71E081F191FD101A2
:10097000ED92FD920D931C93139769817A818B817F
:100980009C8124E630E040E050E036D6645273416A
:1009900080409040660E771E881E991EA60CB71CDC
:1009A000C81CD91CED81FE81A082B182C282D38293
:1009B00026960FB6F894DEBF0FBECDBFCF91DF9164
:1009C0001F910F91FF90EF90DF90CF90BF90AF906D
:1009D0009F908F907F906F905F904F903F902F905F
:1009E00008952F923F924F925F926F927F928F92D3
:1009F0009F92AF92BF92CF92DF92EF92FF920F93AE
:100A00001F93DF93CF9300D000D0CDB7DEB75B014B
:100A10006C0139014A01170128016CEB77E080E095
:100A200090E021E030E040E050E0E6E0EE2EF12CF6
:100A3000012D112D42DE69837A838B839C839AE09A
:100A4000AA0CBB1CCC1CDD1C9A95D1F7A60CB71CBC
:100A5000C81CD91C8601750183E0EE0CFF1C001F29
:100A6000111F8A95D1F7EA18FB080C091D09C2016C
:100A7000B10120E831E541E050E0F0D5E20EF31E8F
:100A8000041F151F89819A81AB81BC81E80EF91E74
:100A90000A1F1B1FB701C8010F900F900F900F90F6
:100AA000CF91DF911F910F91FF90EF90DF90CF904A
:100AB000BF90AF909F908F907F906F905F904F907E
:100AC0003F902F9008951F93162F60E070E0133031
:100AD00014F461E070E0FC01E61BF70B242F3327D0
:100AE00027FD30952E0F3F1FCF0164E070E0A3D5A6
:100AF000260F371FCF016CE97FEF9DD5260F371FDB
:100B0000CF0160E971E097D5260F371FE12FFF274E
:100B1000E7FDF095E757FF4F8081992787FD909576
:100B2000820F931F67E070E086D51F9108955D9B4B
:100B3000FECF8CB90895FC0104C05D9BFECF8CB93B
:100B4000319680818823C9F7089510BC8DE489B956
:100B500088EB8AB91FBC84E08EBD85E083BF82E844
:100B600089BF14BA8FEF85BB08951F920F920FB6FD
:100B70000F9211248F9383EC82BF8F910F900FBE41
:100B80000F901F9018951F920F920FB60F9211247D
:100B90008F939F9384EE98E49DBD8CBD80919600C9
:100BA000909197000196909397008093960081E032
:100BB00080939F009F918F910F900FBE0F901F9079
:100BC00018951F920F920FB60F9211240F900FBE1F
:100BD0000F901F9018951F920F920FB60F9211242D
:100BE0000F900FBE0F901F9018951F920F920FB687
:100BF0000F9211242F938F939F93AF93BF93EF93F3
:100C0000FF938BB18C7119F08FEF809389009CB1A9
:100C1000209189002F3F41F4903109F06EC010926D
:100C200089001092BB0069C08091BB00882309F441
:100C300050C0933009F053C0809196009091970076
:100C40009093990080939800809114018F3841F51A
:100C5000809115018C3A79F4253469F48091BC00B7
:100C60008C3A49F0ACEBB0E0E5E1F1E08EE00190C8
:100C70000D928150E1F7809115018B3A89F48091B2
:100C80008900823169F48091A0008B3A49F0A0EA92
:100C9000B0E0E5E1F1E082E101900D928150E1F7F1
:100CA000809114018D3689F48091890083306CF035
:100CB000809110018D3649F0A0E1B1E0E4E1F1E06E
:100CC00083E001900D928150E1F78FEF80938900CE
:100CD00014C0903121F481E08093BB000EC01092CB
:100CE000BB00253454F4E22FFF27E7FDF095EC5EBE
:100CF000FE4F90832F5F20938900FF91EF91BF916A
:100D0000AF919F918F912F910F900FBE0F901F90D9
:100D100018953F924F925F926F927F928F929F921F
:100D2000AF92BF92CF92DF92EF92FF920F931F93F9
:100D3000DF93CF93CDB7DEB761970FB6F894DEBFE0
:100D40000FBECDBF80EA90E090930F0180930E011B
:100D50008091A0008B3A11F080E0FBC19091AF0030
:100D60008091B0008093AF009093B00087E48983B6
:100D70008091A90080FF02C085E589839091A7003A
:100D80008091A8008093A7009093A8009091A5005F
:100D90008091A6008093A5009093A6008091A10069
:100DA0009091A200A091A300B091A400292F3A2F06
:100DB0004B2F552730705070BA2FA92F982F8827A6
:100DC0008070A070282B392B4A2B5B2BCA01AA27D5
:100DD000BB27A90133272227282B392B4A2B5B2B32
:100DE0002093A1003093A2004093A3005093A4004D
:100DF0008090B7009090B800A090B900B090BA0071
:100E00008091B3009091B400A091B500B091B6006C
:100E1000880E991EAA1EBB1E80E89AE3A9E0B0E0E6
:100E2000880E991EAA1EBB1E8091A7009091A80053
:100E3000AA2797FDA095BA2F881A990AAA0ABB0A71
:100E4000820E931EA41EB51E2091A5003091A6000F
:100E500040E050E0215030404040504060E070E0C1
:100E600080E090E085017401BCDD6E877F87888B10
:100E7000998BAE014E5F5F4F9E012A5F3F4F8E01FF
:100E8000065F1F4FBEDC989B12C01092B7001092F5
:100E9000B8001092B9001092BA001092B3001092EC
:100EA000B4001092B5001092B60085E58983989938
:100EB00071C020E13EE040E050E02093B700309365
:100EC000B8004093B9005093BA00E0910E01F09140
:100ED0000F0107851089C80163E04FE1F4DDC82EDA
:100EE000C8016AE04FE1EFDD382E4A805B806C80FC
:100EF0007D80DD24C7FCD094BFE1EB2EF12CEC18F3
:100F0000FD080027F7FC0095102FC301B20123E074
:100F100030E040E050E0D1DB2E853F85488959899B
:100F2000261737074807590774F080E19EE0A0E0D4
:100F3000B0E08093B3009093B400A093B500B09359
:100F4000B60083E58983832D992787FD9095AFE1CE
:100F5000EA2EF12CE81AF90A0027F7FC0095102F69
:100F6000C301B2012AE030E040E050E0A6DB2E856C
:100F70003F8548895989261737074807590754F08C
:100F80001092B3001092B4001092B5001092B60007
:100F90008DE48983C0900E01D0900F018A819B81DE
:100FA000D60150969C938E931F978E811E968C939C
:100FB0001E978A851D968C93C501B40120E831E502
:100FC00041E050E04BD37B018C01C801B70120E127
:100FD0003EE040E050E042D3B22EF6012487622F7B
:100FE00070E080E090E020EF31EF4FEF5FEF04D34F
:100FF0006E0D7F1D801F911F2CE330E040E050E01C
:101000002DD3D6011B962C931B97B294F0EFBF22E1
:10101000EB188CE3289F90011124E21A1A96EC92A7
:10102000EDB7FEB73C970FB6F894FEBF0FBEEDBF0D
:1010300031960BEE10E0ADB7BEB712961C930E932F
:10104000119780E690E093838283D6011C968C9161
:101050001C97848315821B968C9186831782E08669
:101060001186CE0101969387828777D320919E00C7
:10107000EDB7FEB73C960FB6F894FEBF0FBEEDBFBE
:10108000222309F044C040910E0150910F01DA0172
:1010900019968C9182FD3BC038970FB6F894FEBF2D
:1010A0000FBEEDBF3196075F1F4FADB7BEB71296AB
:1010B0001C930E93119783E790E093838283DA0168
:1010C0001D968C911D97848315821F968D919C91FE
:1010D0005097805D9740978386833FD3EDB7FEB7E7
:1010E00038960FB6F894FEBF0FBEEDBFE0910E012B
:1010F000F0910F01668583E0689FB0011124655966
:101100007C4FC801029643E050E0F9D21DC000D0E8
:1011100000D000D0EDB7FEB7319684EF90E0ADB7C8
:10112000BEB712969C938E9311978FE790E09383AE
:1011300082832483158211D3EDB7FEB736960FB69E
:10114000F894FEBF0FBEEDBF10929E001092A0005B
:1011500081E061960FB6F894DEBF0FBECDBFCF9190
:10116000DF911F910F91FF90EF90DF90CF90BF9094
:10117000AF909F908F907F906F905F904F903F9037
:1011800008952F923F924F925F926F927F928F922B
:101190009F92AF92BF92CF92DF92EF92FF920F9306
:1011A0001F9388EE93E02CE231E0F9013197F1F7DB
:1011B0000197D9F7CADC88EE93E02CE231E0F9011F
:1011C0003197F1F70197D9F78CE0E1D1A6D180EC06
:1011D00093E0D0D180E061E096D18FEA93E0CAD16C
:1011E00080E29EE42CE231E0F9013197F1F70197BA
:1011F000D9F7789400E113E1F6E22F2EE1E24E2ECA
:1012000075E3372E6CE1E62E53E0F52E42E0742EA6
:101210003FE1632E2BEB522E90E7A92E89E3982E07
:10122000B2EC8B2EAAE7DA2EFEE8CF2EE5E1BE2E39
:10123000A895F89420919600309197007894809129
:101240009800909199000296821793070CF0C9C0FC
:1012500080919F00882309F4C4C05FD18EE993E098
:1012600089D180E061E04FD183E993E083D1F894A4
:1012700080919600909197007894209198003091F9
:101280009900821B930B6AEC70E04AE050E046D272
:101290008CE061E038D18AEC90E061D15D9BFECFBB
:1012A00087E28CB95D9BFECF0CB95D9BFECF1CB96C
:1012B0005D9BFECF2CB85D9BFECF0CB95D9BFECF36
:1012C0001CB95D9BFECF84E28CB95D9BFECF0CB94F
:1012D0005D9BFECF1CB95D9BFECF8CE38CB95D9B03
:1012E000FECF0CB95D9BFECF1CB95D9BFECF4CB809
:1012F0005D9BFECF0CB95D9BFECF1CB95D9BFECF05
:101300003CB85D9BFECF0CB95D9BFECF1CB95D9BCD
:10131000FECFECB85D9BFECFFCB85D9BFECF0CB959
:101320005D9BFECF1CB95D9BFECFECB85D9BFECFF5
:101330007CB85D9BFECF0CB95D9BFECF1CB95D9B5D
:10134000FECF6CB85D9BFECF0CB95D9BFECF1CB988
:101350005D9BFECF5CB85D9BFECF1CB85D9BFECF56
:101360000CB95D9BFECF1CB95D9BFECFACB85D9BFD
:10137000FECF0CB95D9BFECF1CB95D9BFECF9CB828
:101380005D9BFECFFCB85D9BFECF1CB85D9BFECF86
:101390000CB95D9BFECF1CB95D9BFECF8CB85D9BED
:1013A000FECF0CB95D9BFECF1CB95D9BFECFDCB8B8
:1013B0005D9BFECF1CB85D9BFECF0CB95D9BFECF45
:1013C0001CB95D9BFECFCCB85D9BFECFBCB85D9BCE
:1013D000FECF0CB95D9BFECF1CB910929E001092FF
:1013E0009F002AD88823F1F080910C0190910D0183
:1013F000892BC1F080E061E086D080910C01909152
:101400000D01B8D08091C500882361F090E06AECAE
:1014100070E040E150E082D18EE061E074D08AEC6F
:1014200090E09DD0F9D775DC882309F401CF80E0E6
:1014300060E069D08BEE90E092D0FACE662311F096
:10144000D89A01C0D898D998D49AD59AD69AD79ACA
:10145000DF98DE98DD98DC9887FDDF9A86FDDE9ABE
:1014600085FDDD9A84FDDC9ADA9A00C0DA98DF986F
:10147000DE98DD98DC9883FDDF9A82FDDE9A81FD9F
:10148000DD9A80FDDC9ADA9A00C0DA98DC9ADD9A5F
:10149000DE9ADF9A0895882311F0D89A01C0D8986F
:1014A000D99AD498D598D698D798DA9A00C0CC9B78
:1014B00002C080E101C080E0CD998062CE99806455
:1014C000CF998068DA9800C0DA9A00C0CC99816020
:1014D000CD998260CE998460CF998860DA9808951A
:1014E00080E0D9DF87FDFCCF86E090E00197F1F73F
:1014F00080E0D1DF08951F93182FF2DF812F60E085
:101500009DDF1F910895662311F4805801C0805417
:10151000F2DF0895E5DF90E0089581E0ECDF0895C3
:1015200082E0E9DF08951F93182FDADF1A3041F4C3
:10153000803410F080E001C080E48058DCDF0DC012
:10154000803111F480EC03C0803519F480E860E04C
:1015500075DFC6DF812F61E071DF1F910895CF93A2
:10156000DF93EC0101C0DFDF89918823E1F7DF9190
:10157000CF910895CF93DF93EC0101C0D4DFFE013A
:10158000219684918823D1F7DF91CF9108951F93FD
:10159000182FD09AD19AD29AD49AD59AD69AD79A05
:1015A00080E89BEB0197F1F7DD9ADC9ADA9A00C0AC
:1015B000DA9880E89AE30197F1F7DA9A00C0DA98AE
:1015C00080EC90E0FC013197F1F7DA9A00C0DA98EC
:1015D000FC013197F1F7DC98DA9A00C0DA980197AC
:1015E000F1F788E288DF88E086DF97DF86E083DF37
:1015F000812F81DF1F910895629FD001739FF001B9
:10160000829FE00DF11D649FE00DF11D929FF00D92
:10161000839FF00D749FF00D659FF00D9927729FC9
:10162000B00DE11DF91F639FB00DE11DF91FBD0154
:10163000CF011124089597FB092E07260AD077FDC4
:1016400004D027D006D000201AF4709561957F4F02
:101650000895F6F7909581959F4F089597FB092E71
:1016600005260ED057FD04D028D00AD0001C38F42F
:1016700050954095309521953F4F4F4F5F4F0895BE
:10168000F6F790958095709561957F4F8F4F9F4F9E
:101690000895AA1BBB1B51E107C0AA1FBB1FA617B9
:1016A000B70710F0A61BB70B881F991F5A95A9F70B
:1016B00080959095BC01CD010895A1E21A2EAA1B38
:1016C000BB1BFD010DC0AA1FBB1FEE1FFF1FA217F2
:1016D000B307E407F50720F0A21BB30BE40BF50BEF
:1016E000661F771F881F991F1A9469F76095709578
:1016F000809590959B01AC01BD01CF010895FB0140
:10170000DC014150504048F005900D920020C9F78F
:1017100001C01D9241505040E0F70895FB019F0128
:10172000E8944230BCF04532ACF44A3029F497FBDF
:101730001EF4909581959F4F642F7727AADF805DD7
:101740008A330CF0895D8193CB010097A9F716F4D9
:101750005DE251931082C90105C2AEE0B0E0E2EB58
:10176000FBE0A8C20D891E8986E08C831A83098359
:101770008FEF9FE79E838D839E01275E3F4FCE01B3
:1017800001966F89788DA90109D02F813885020FC4
:10179000131FF80110822E96E4E0A8C2ABE0B0E07F
:1017A000E3EDFBE079C23C012B015A01FC011782F9
:1017B0001682838181FD03C06FEF7FEFB9C19AE08C
:1017C000892E1E010894211C311CF3012381F20192
:1017D00023FD859123FF81912F01882309F4A5C161
:1017E000853239F423FD859123FF81912F018532C4
:1017F00021F490E0B301C6D1E8CF982FFF24EE2466
:101800009924FFE1FF15D0F09B3269F09C3228F457
:10181000903259F0933291F40EC09D3249F09033DA
:1018200069F441E024C052E0F52A84E0F82A28C097
:1018300098E0F92A25C0E0E1FE2A22C0F7FC29C081
:10184000892F80538A3070F4F6FE05C0989C902C46
:101850001124980E15C0E89CE02C1124E80EF0E24B
:10186000FF2A0EC09E3229F4F6FC5FC140E4F42A40
:1018700007C09C3619F450E8F52A02C0983649F49E
:10188000F20123FD959123FF91912F01992309F0F6
:10189000B8CF892F8554833018F08052833038F4C4
:1018A00044E050E0A40EB51E5FE359830FC09336A9
:1018B00031F0933779F0933509F052C01FC0F5012C
:1018C0008081898342E050E0A40EB51E610101E0F1
:1018D00010E011C0F501C080D180F6FC03C06FEFAD
:1018E0007FEF02C0692D70E042E050E0A40EB51E0B
:1018F000C6012DD18C015FE7F52213C0F501C08030
:10190000D180F6FC03C06FEF7FEF02C0692D70E05D
:1019100042E050E0A40EB51EC6010ED18C0150E885
:10192000F52AF3FE06C018C080E290E0B3012AD188
:10193000EA948E2D90E008171907B0F30DC0F60158
:10194000F7FC8591F7FE81916F0190E0B3011AD108
:10195000E110EA94015010400115110581F7E2C031
:10196000943611F0993661F5F7FE08C0F501208133
:1019700031814281538184E090E00AC0F501808189
:1019800091819C01442737FD4095542F82E090E0DF
:10199000A80EB91E9FE6F92257FF09C05095409541
:1019A000309521953F4F4F4F5F4FE0E8FE2ACA0127
:1019B000B901A1012AE030E011D1D82ED2183FC0E0
:1019C000953729F41F2D1F7E2AE030E01DC01F2D02
:1019D000197F9F3661F0903720F4983509F0A5C043
:1019E0000FC0903739F0983709F09FC004C028E045
:1019F00030E00AC0106114FD146020E130E004C042
:101A000014FD166020E132E017FF08C0F501608187
:101A100071818281938144E050E008C0F5018081AA
:101A20009181BC0180E090E042E050E0A40EB51E40
:101A3000A101D4D0D82ED2188FE7F82EF122F6FECD
:101A40000BC05EEFF522D91438F4F4FE07C0F2FCA7
:101A500005C08FEEF82202C01D2D01C0192DF4FE25
:101A60000DC0FE01ED0DF11D8081803319F499EE5A
:101A7000F92208C01F5FF2FE05C003C08F2D8678D3
:101A800009F01F5F0F2DF3FC13C0F0FE0EC01E15F2
:101A900010F09D2C0AC09D2C9E0C911A1E2D05C085
:101AA00080E290E0B3016ED01F5F1E15C8F304C042
:101AB0001E1510F4E11A01C0EE2404FF0EC080E3ED
:101AC00090E0B3015FD002FF1BC001FD03C088E7B7
:101AD00090E00EC088E590E00BC0802F867881F002
:101AE00001FF02C08BE201C080E2F7FC8DE290E0D2
:101AF000B30148D005C080E390E0B30143D09A948D
:101B0000D914C8F3DA94F101ED0DF11D808190E054
:101B1000B30138D0DD20B1F705C080E290E0B30119
:101B200031D0EA94EE20C9F750CEF3016681778177
:101B3000CB012B96E2E1CCC0FC01059061507040D6
:101B40000110D8F7809590958E0F9F1F0895FC0186
:101B50006150704001900110D8F7809590958E0FDC
:101B60009F1F0895DC01FC01672F71917723E1F736
:101B7000329704C07C916D9370836291AE17BF075A
:101B8000C8F308950F931F93CF93DF938C01EB015C
:101B90008B8181FF1BC082FF0DC02E813F818C8114
:101BA0009D812817390764F4E881F9810193F9834D
:101BB000E88306C0E885F985802F0995892B31F4E3
:101BC0008E819F8101969F838E8302C00FEF1FEF4E
:101BD000C801DF91CF911F910F910895FA01AA27B3
:101BE000283051F1203181F1E8946F936E7F6E5F60
:101BF0007F4F8F4F9F4FAF4FB1E03ED0B4E03CD00E
:101C0000670F781F891F9A1FA11D680F791F8A1FF0
:101C1000911DA11D6A0F711D811D911DA11D20D057
:101C200009F468943F912AE0269F11243019305D11
:101C30003193DEF6CF010895462F4770405D419302
:101C4000B3E00FD0C9F7F6CF462F4F70405D4A334F
:101C500018F0495D31FD4052419302D0A9F7EACF17
:101C6000B4E0A6959795879577956795BA95C9F746
:101C700000976105710508959B01AC010A2E069439
:101C80005795479537952795BA95C9F7620F731FF2
:101C9000841F951FA01D08952F923F924F925F922F
:101CA0006F927F928F929F92AF92BF92CF92DF926C
:101CB000EF92FF920F931F93CF93DF93CDB7DEB7D1
:101CC000CA1BDB0B0FB6F894DEBF0FBECDBF099465
:101CD0002A88398848885F846E847D848C849B84BC
:101CE000AA84B984C884DF80EE80FD800C811B81CA
:101CF000AA81B981CE0FD11D0FB6F894DEBF0FBEF9
:0A1D0000CDBFED010895F894FFCF68
:101D0A00253032753A253032753A2530327525310B
:101D1A0073200025303275202020253032750020AE
:101D2A00536174733A25317500FF000302050003FD
:061D3A000501040602048D
:00000001FF
