:060000000200760209F87F
:01000B0032C2
:03001300020A4896
:03001B00020A9B3B
:030023000203498C
:03002B0002023A94
:03003300020A9C22
:03003B00020A9D19
:01004300328A
:03004B00020A9E08
:03005300020A9FFF
:03005B00020AA0F6
:03006300020AA1ED
:01006B003262
:03007300020AA2DC
:0500CF00C208C2097522
:0600D40033FFE4F52DF5F9
:0100DA002EF7
:0300DB000200DE42
:0500DE001200E380FEAA
:0A00E30053D9BF1202051201EB12FF
:0C00ED000329D2AFC293D287D283750ED4
:0A00F900F4750F017582001202BCBD
:0E01030075820012031150F8120AA3758203D0
:05011100120AEB750B62
:0301160010750C55
:0801190015750D00758201123D
:040121000BAD750BA2
:0301250021750C35
:0801280015750D00758202122D
:060130000BAD750EDC753D
:080136000F057582001202BCE6
:0E013E0075820012031150F8758203120AEB4D
:09014C00C287C283C204C205C2CD
:0301550006750B21
:0301580044750CDF
:08015B0015750D0075820112FB
:060163000BAD750EC47522
:0B0169000F097582001202BCD29375D2
:090174000E32E4F50F758202124F
:02017D0002BCC2
:0A017F003000177582001202F4121E
:0601890004E0750EB075E4
:09018F000F047582001202BCC2CB
:010198000660
:0C019900758200120311503620061F75FD
:0901A5000EB0750F047582001202
:0401AE0002BC750B0F
:0301B20054750C75
:0801B50015750D0075820112A1
:0601BD000BADD206801418
:0A01C300750EF4750F01758200122D
:0901CD0002BC758203120AEBC2A8
:0101D6000622
:0B01D70075820212031150A0D203D267
:0901E200027582021202F48094FD
:0E01EB0075D40175A49875E10175E24075A503
:0C01F9007F43A80575E421D288D28A2239
:0E020500538E9F53C8FE75CA0275CBFE85CA84
:0B021300CC85CBCD75C804D2AD7A03BA
:0C021E00EA14FB75F003A42422F874021B
:0E022A0028F977007600087600188B02EA703B
:02023800E522BD
:0E023A00C0E0C0F0C002C003C004C005C00098
:0A024800C0D075D000C2CFE52D45EF
:080252002E6009152D74FFB5A3
:04025A002D02152E2E
:02025E007A0024
:03026000BA0300DE
:0C0263005033EA75F003A4FB2422F88657
:0E026F000408860518EC4D60151CBCFF011D2F
:0C027D00A60408A60518EB24222402F8B1
:040289007601800872
:08028D00EB24222402F87600A4
:030295000A80C814
:0E029800D0D0D000D005D004D003D002D0F0DA
:0302A600D0E03273
:0A02A900AA82AB83C2AF8A2D8B2E10
:0202B300D2AFC8
:0702B500E52D452E70FA2231
:0C02BC00AA82C2A9EA75F003A4FA242269
:0802C800F8A60E08A60FEA24B7
:0902D000222402F87601D2A922D1
:0C02D900E582FA75F003A424222402F848
:0902E5008602BA01047A018002CC
:0202EE007A0094
:0402F000EA24FF22DB
:0C02F400AA82C2A9EA75F003A4FA242231
:0C030000F87600087600EA24222402F8B7
:05030C007602D2A922D7
:0C031100E582FA75F003A424222402F80F
:08031D00E67005740124FF22C3
:04032500E424FF22AB
:0E032900759810758D61538EF4438E08858D86
:0E0337008B53890F438920D28ED299C298D25F
:040345009CD2AC2278
:0E034900C0E0C082C083C0D075D010209803E1
:030357000204722B
:0B035A00AA99C298E52C24AB5009754D
:060365002B00752C0002C4
:02036B0004D7B5
:09036D00E52B24FA500302046D93
:05037600E52B252B25FD
:05037B002B90038073CC
:070380000203920203B40224
:0603870003C30203D202D1
:05038D0003EA02041167
:0C039200BA100D752C01900013EAF075F4
:04039E002B04800D9F
:0503A200BA030280080F
:0603A700752B01C2007578
:0203AD002C0022
:0503AF00C2070204D7A3
:0903B400BA1006752B020204D7F1
:0603BD00752B000204D7BD
:0903C300BA0306752B030204D7EE
:0603CC00752B000204D7AE
:0C03D200BA100D752C01900013EAF075B4
:0403DE002B04800369
:0303E200752B0078
:0503E500C2070204D76D
:0503EA00BA10028003BF
:0303EF00BA030945
:0703F200752B00752C0002C1
:0203F90004D727
:0603FB00752B05AB2C057B
:080401002CEB2413F582E43416
:0804090000F583EAF00204D7BC
:0A041100BA1019E52C142413F5822B
:0B041B00E43400F583E0FBBB10082078
:050426000705D20702EA
:02042B0004D7F4
:0A042D00BA0329E52C142413F5820C
:0B043700E43400F583E0FBBB1018204C
:050442000715D200E5E2
:070447002C2413F582E434BC
:09044E0000F583E4F0752B0302B4
:0204570004D7C8
:06045900AB2C052CEB2486
:0A045F0013F582E43400F583EAF09F
:04046900C207806ADC
:05046D00752B00806505
:050472001099028060FA
:08047700200108C298C201C275
:03047F00008055A5
:07048200E52BB40602800720
:07048900E52BB407498017C1
:0A049000759910752B07152C7401E7
:06049A002413F52FE434E9
:0404A00000F530C271
:0304A4000780309E
:0A04A700852F82853083E0FA8A99E0
:0A04B100BA100D20070AE52C24FE06
:0604BB005004D207801678
:0704C100052FE4B52F020531
:0104C8003003
:0504C900C207AA2C157A
:0704CE002CEA7005C2017564
:0204D5002C00F9
:0904D700D0D0D083D082D0E032F5
:0C04E000900014E0FA900015E0FB7C0294
:0A04EC00C3EC952C501EEC24FE24F6
:0804F60068FDE43400FEEC2473
:0A04FE0013F582E43400F583E0FFFB
:080508008D828E83F00C80DC73
:0A051000C200BA8F16BBAB028005D3
:05051A00BBAC0E8006E1
:06051F0090006802052CAB
:0605250090006802069739
:01052B0022AD
:0E052C00AA82AB83740A2AF582E43BF583E0D1
:0A053A00FC7D0074062402F51BE4AA
:050544003400F51C75F8
:0B0549001D028C828D83C002C00312D3
:0E0554000D3ED003D002900008E0FCBC200653
:060562009000087430F067
:0E05680090000A7420F0740B2AF582E43BF533
:0A05760083E0FC7D0074032402F50D
:050580001BE43400F54E
:0A0585001C751D028C828D83C002DC
:0E058F00C003120D3ED003D002900005E0FC28
:09059D00BC20069000057430F04A
:0E05A600900007743AF0740C2AF582E43BF5DD
:0905B40083E0FC7D00751B02755B
:0305BD001C0075AA
:0B05C0001D028C828D83C002C003125C
:0E05CB000D3ED003D002900002E0FCBC2006E2
:0605D9009000027430F0F6
:0E05DF00900004743AF0740D2AF582E43BF5A6
:0A05ED0083E0FC7D0074092402F590
:0505F7001BE43400F5D7
:0A05FC001C751D028C828D83C00265
:0E060600C003120D3ED003D00290000BE0FCAA
:09061400BC200690000B7430F0CC
:0E061D00740E2AF582E43BF583E0FC1475F0C0
:0E062B0003A4FC90123293FD90000DF07401B8
:0E0639002C90123293FD90000EF074022C9063
:0E064700123293FD90000FF0740F2AF582E43A
:0C0655003BF583E0FD8D3274102AF58225
:0C066100E43BF583E0FA8A312430FC7A97
:09066D0000740E2402F51BE434B4
:0406760000F51C75FA
:0A067A001D028C828A83120D3E904F
:0D0684000010E0FABA20069000107430F06B
:06069100900012E4F022CB
:07069700858234858335756F
:03069E00080275DA
:0306A100090075D8
:0B06A4000A00758201120B57740A2532
:0A06AF0034F582E43535F583E0FCF4
:0C06B900900001F0740B2534F582E4354C
:0A06C50035F583E0FC900000F09092
:0E06CF000000E0FCA3E0FDC42354E0CCC423F3
:0E06DD00CC6CCC54E0CC6CFD900000ECF0A393
:0C06EB00EDF0900000E0FC74092534FDE7
:0C06F700E43535FE8D828E83E0FF420466
:08070300900000ECF0B2093097
:03070B00090122BF
:0E070E00758202C005C006120AEBD006D005A7
:0E071C00900000E0FCA3E0FFBC0005BF00025F
:02072A00804D00
:0C072C00E533B40548900000E0FCA3E0B9
:05073800FF7541027590
:03073D0042007502
:0307400043657599
:0A07430044158C828F83C005C006A8
:0A074D00120DF79208D006D0053017
:040757000817750802
:03075B000275091B
:0A075E0000750A00758202C005C094
:0807680006120B57D006D00564
:090770008D828E83E0FD60012200
:040779003008012221
:0A077D000533C3E533648094864021
:0407870003753300C3
:07078B00753A1C753B107567
:080792003C27E53330E70302C8
:02079A0009E96B
:0C079C00C374858533F063F08095F05045
:0407A800030209E956
:0507AC00E533253325B3
:0507B100339007B67350
:0707B6000207C80207F00270
:0607BD00081B02084202C5
:0507C300086E0208773A
:0A07C800853482853583A3A3E0FF8A
:0A07D20075F011A424DFFAE43412DC
:0607DC00FB8A418B42750F
:0907E200438090000275F0001242
:0507EB000EF80209E90F
:0A07F000740D2534F582E43535F56B
:0C07FA0083E0FF75F011A42477FAE434CA
:0508060014FB8A418B88
:05080B004275438090DE
:09081000000275F000120EF8025E
:0208190009E9EB
:0A081B00853482853583A3E0FF7564
:0A082500F011A42457FAE43412FB8A
:05082F008A418B4275B7
:09083400438090000275F00012EF
:05083D000EF80209E9BC
:0A084200740C2534F582E43535F519
:0B084C0083E0FF75F011A42456FA743D
:070857001335F0FB8A418B11
:05085E0042754380908B
:09086300000275F000120EF8020B
:02086C0009E998
:08086E00753A20753B64E4F5C6
:010876003C45
:08087700E53A2534F582E43571
:08087F0035F583E0FF8F39AF6E
:0C0887003A7D0074012FFEE43DFAEE25DE
:0A08930034F582EA3535F583E0FA0A
:0B089D008A3874022FFAE43DFBEA25C4
:0A08A80034F582EB3535F583E0FAF4
:0B08B2008A3774032FFFE43DFDEF25A3
:0A08BD0034F582ED3535F583E0FADD
:0608C7008A3685368285A9
:0608CD0037838538F0E5D9
:0608D3003912116A858252
:0308D9003A853627
:0308DC003D853720
:0308DF003E85381B
:0308E2003F853916
:0A08E50040AF3A7C008F828C831232
:0E08EF0010C1AC82AF83AAF0FBC004C007C0EA
:0A08FD0002C003853D82853E83851D
:050907003FF0E5401285
:07090C000EC485823D8583C6
:050913003E85F03FF5F8
:0A09180040E58124FCF581853B8257
:0C092200853C831210CEAE82AF83AAF099
:0C092E00FBC006C007C002C003853D826C
:07093A00853E83853FF0E5D7
:0C09410040120F38AA82AB83ACF0FDE539
:0D094D008124FCF5818A828B838CF0ED12F1
:07095A0010DA85823B858362
:0A0961003CE53324FC75F009A424E2
:07096B0032FAE43415FB8AA7
:04097200418B4275FE
:09097600438090000275F00012AC
:09097F000EF8AC3A7A007406246B
:0509880002F51BE43440
:04098D0000F51C75E0
:0A0991001D038C828A83120D3E9034
:0A099B00000B742EF0740A2402F51C
:0509A5001BE43400F525
:0A09AA001CE53324FC25E0FA2402CA
:0609B400F51D853B828564
:0709BA003C83120D3E7A00A0
:0309C100BA030076
:0B09C4005023740A2A2402F582E43458
:0C09CF0000F583E0FBBB2012740A2A2410
:0A09DB0002F582E43400F583743065
:0409E500F00A80D8BC
:0409E9007508027516
:0309ED0009007589
:0809F0000A00758202020B5798
:0E09F800C0E0C0F0C082C083C002C003C004D3
:0E0A0600C005C006C007C000C001C0D075D03A
:060A140000100202801335
:0A0A1A00A287B392049287750E3292
:090A2400E4F50F7582021202BC18
:0E0A2D00D0D0D001D000D007D006D005D00424
:0D0A3B00D003D002D083D082D0F0D0E032C2
:0E0A4800C0E0C0F0C082C083C002C003C00482
:0E0A5600C005C006C007C000C001C0D075D0EA
:0C0A6400003003187582021202D9401005
:050A7000C203D2057570
:090A75000E96E4F50F75820212E1
:020A7E0002BCB8
:0E0A8000D0D0D001D000D007D006D005D004D1
:0D0A8E00D003D002D083D082D0F0D0E0326F
:010A9B003228
:010A9C003227
:010A9D003226
:010A9E003225
:010A9F003224
:010AA0003223
:010AA1003222
:010AA2003221
:0E1232004A616E4665624D61724170724D6197
:0E124000794A756E4A756C4175675365704F3B
:09124E0063744E6F764465630081
:0E12570052583A204175746F2032442F3344B0
:0E12650000000052583A2053696E676C6520F5
:0E12730053617400000052583A20556E6B6EA5
:0E1281006F776E21212100000052583A20485C
:0E128F006F72697A2E202832442900005258CE
:0E129D003A2046756C6C20506F73283344293C
:0E12AB000052583A2044475053205265666561
:0E12B9007200000052583A20436C6B20486FC0
:0E12C7006C64283244290052583A204F766554
:0A12D5007264657420436C6B000026
:0E12DF004D4F44453A204E6F726D616C000019
:0E12ED0000000C4D4F44453A20506F7765725B
:0E12FB002D55700000004D4F44453A204175BE
:0E130900746F20486C647672004D4F44453A74
:0E131700204D616E2E20486C647672004D4FA2
:0E13250044453A205265636F76657279000088
:0E133300004D4F44453A20556E6B6E6F776E3D
:0E134100212121004D4F44453A20446973613B
:07134F00626C656400000000
:0E1356004750533A20446F696E67204669780D
:0E1364006573004750533A204E6F2047505398
:0E1372002054696D65004750533A20556E6B4C
:0E1380006E6F776E21212100004750533A20F6
:0E138E0050444F5020746F20484900004750D3
:0E139C00533A20556E6B6E6F776E2121210043
:0E13AA00004750533A20556E6B6E6F776E21E0
:0E13B800212100004750533A20556E6B6E6F96
:0E13C600776E21212100004750533A20556ECA
:0E13D4006B6E6F776E21212100004750533A57
:0E13E200204E6F205573652053415453004731
:0E13F00050533A204F6E6C79203120534154F7
:0E13FE0000004750533A204F6E6C7920322089
:0E140C0053415453004750533A204F6E6C79B1
:0E141A0020332053415453004750533A20537F
:0E142800415420556E757361626C004750533D
:0E1436003A20556E6B6E6F776E2121210000FB
:0E1444004750533A20556E6B6E6F776E212124
:0E1452002100004750533A20556E6B6E6F77A5
:0E1460006E21212100004750533A205452497A
:09146E00414D2052656A656300DE
:0E1477004143543A205068617365204C6F6306
:0E1485006B00004143543A204F7363205761BF
:0E149300726D757000004143543A2046726538
:0E14A10071204C6F636B0000004143543A20F1
:0E14AF00506C6163696E6720505053004143DA
:0E14BD00543A20496E69742E206C6F6F7000D7
:0E14CB00004143543A20436F6D70656E7361AB
:0E14D900746500004143543A20496E6163740B
:0E14E7006976650000000C4143543A20556EB2
:0E14F5006B6E6F776E21212100004143543A47
:0D150300205265636F76657279204C5000B0
:0E15100020545349504D6F6E2076302E322EEF
:03151E0032200078
:0E152100207777772E6B6F3462622E636F6DCA
:03152F0020200079
:0E15320054454D503A202000004441432056BD
:041540003A2000004D
:0E15440057616974696E6720666F72204750A8
:02155200530044
:0E1554002020204E6F204D6573736167652067
:0315620020200046
:0D0AA30090000F1202A9759030120C929075
:0C0AB00000051202A9120C929000011225
:090ABC0002A9120C92759020129F
:0C0AC5000C929000011202A97582281208
:0C0AD1000BFC75820C120BFC75820612E7
:0C0ADD000BFC758201120BFC9000020261
:020AE90002A960
:0E0AEB00AA82BA030C758201120BFC90000A5D
:030AF9000202A94D
:0E0AFC00EA30E02F758280C002120BFCD0029F
:020B0A007B006E
:030B0C00BB10001B
:0E0B0F00501EC002C003120C68D003D002E4D6
:0E0B1D0033758220C002C003120C32D003D008
:040B2B00020B80DD5C
:0C0B2F00EA30E1237582C0120BFC7A0052
:030B3B00BA1000ED
:0E0B3E005016C002120C68D002E433758220FB
:0A0B4C00C002120C32D0020A80E54C
:010B5600227C
:0C0B5700AA82BA010B7480250AF58212F4
:040B63000BFC8009FE
:090B670074C0250AF582120BFC92
:080B7000150874FFB508021519
:010B78000973
:040B7900AA08AB0912
:050B7D000ABA00010BA3
:0D0B82008A828B83E0FC6022C002C0031257
:0E0B8F000C68D003D002E4338A828B83E0FC32
:0E0B9D00F582C002C003120C32D003D00280D9
:010BAB00D178
:010BAC002226
:0C0BAD00AA82BA010B7480250DF582129B
:040BB9000BFC8009A8
:090BBD0074C0250DF582120BFC39
:040BC600AA0BAB0CBF
:0E0BCA00C002C003120C68D003D002E4338ACC
:0E0BD800828B83E493FCA3AA82AB838C82C041
:0E0BE60002C003120C32D003D0028A828B832D
:070BF400E493FC600280CFD6
:010BFB0022D7
:0E0BFC00AA82C002120C91D00274F05AFB8B38
:0E0C0A0090C002120C9ED002C002120CA4D0A8
:0E0C180002C002120C92D002740F5AFBC45498
:0A0C2600F0F590120C9E120CA402CF
:020C30000C9224
:0E0C3200AA82C002120C91D00274F05AFB8B01
:0E0C400090C002120C9BD002C002120CA4D075
:0E0C4E0002C002120C92D002740F5AFBC45462
:0A0C5C00F0F590120C9B120CA4029C
:020C66000C92EE
:070C6800120C8E120C9E120B
:020C6F000CA1D6
:020C71007A0502
:060C7300DAFED2927A05C0
:0A0C7900DAFEA297920AC292200A46
:0B0C8300ED120CA4E4A20A3324FF22AF
:030C8E00D29722D8
:010C91002240
:040C9200D2927A057B
:050C9600DAFEC292220B
:030C9B00D29022D2
:030C9E00C29022DF
:030CA100D29122CB
:030CA400C29122D8
:0C0CA700AA82AB837C007D007E007F00F1
:030CB300BF060079
:050CB600505FBC0500C9
:0D0CBB00505A8A828B83E0F86052B83000F6
:070CC8004005E824C6500FAF
:0B0CCF008A828B83E0F9B92002803597
:040CDA007C058031E4
:0A0CDE000C75410AE4F5428D828E88
:0E0CE80083C002C003C004C007C00012104B3E
:0E0CF600AD82AE83D000D007D004D003D00270
:0B0D040053000F7900E82DFDE93EFED2
:080D0F000F0ABA009F0B809C43
:0C0D17008A828B83E0701CEC6019AA1823
:0A0D2300AB19AC1A8A828B838CF0A6
:0D0D2D00ED121032A3EE1210327582012279
:040D3A00758200229C
:0A0D3E00AA82AB83E51D14FDE51D3C
:0A0D4800251BF582E4351CF583E459
:030D5200F08D061B
:0A0D5500EE20E76375410AE4F54261
:0E0D5F008A828B83C002C003C006120ECFAF83
:0C0D6D0082A883D006D003D00275410A92
:0C0D7900E4F5428F828883C002C003C0F2
:0E0D850006C007C00012104BA982AC83D0003C
:0E0D9300D007D006D003D002EAC399F9EB9C3A
:0C0DA100FC8F028803EE251BF582E43570
:0C0DAD001CF583430130E9F0EA4B6003C1
:030DB9001E809900
:0A0DBC00EA4B601BE51D14FD8D02DB
:0B0DC600EA20E710EA251BF582E43567
:090DD1001CF583743FF01A80EC5C
:010DDA0022F6
:050DDB00EE14FD8D0285
:0C0DE000EA20E7128A031AEB251BF582BB
:0A0DEC00E4351CF5837420F080EA62
:010DF60022DA
:0B0DF700AA82AB83EA4B700324FF22AA
:0E0E02009000BDE0FC24F050059000BDE4F02F
:020E10007C0064
:0E0E12009000BDE0FD8DF005F07E017F0080B8
:010E200006CB
:060E2100EE2EFEEF33FF90
:0E0E2700D5F0F7EA5206EB5207EE4F7022901C
:0E0E350000BD74012DF09000BDE0FEBE100067
:080E430050088C060CBE1000E3
:020E4B0040C5A0
:090E4D009000BDE4F0E424FF2252
:0A0E5600ED75F011A42543FAE54400
:0E0E600035F0FB8A828B83E49370139000BD03
:0A0E6E0074012DF085418285428356
:060E7800E4F0E424FF2277
:020E7E007A00F8
:030E8000BA1100A4
:0A0E8300502EEA2541FBE43542FC45
:0C0E8D009000BDE0FD75F011A42543FDB0
:0C0E9900E43544FEEA2DF582E43EF583CA
:0E0EA500E493FD8B828C83F0ED60030A80CD18
:0E0EB3009000BDE0FA9000BD74012AF07401B9
:030EC10024FF22E9
:0E156500524F4D20436865636B73756D2045D2
:0E15730072720052414D20436865636B204642
:0E15810061696C656400506F77657253757018
:0E158F00706C79204661696C0046504741201F
:0E159D00436865636B204661696C200056430D
:0E15AB004F206174207261696C000000000026
:0E15B9000C56434F204E656172205261696CE2
:0E15C7000000000C416E74656E6E61204F7066
:0E15D500656E000000000C416E74656E6E6164
:0E15E3002053686F7274656400004E6F7420B0
:0E15F100547261636B696E6720536174004E23
:0E15FF006F74204469736369706C696E696E65
:0E160D00670053757276657920496E20507221
:0E161B006F677273004E6F2053746F726564B8
:0E16290020506F730000000C4C656170205360
:0E16370065632050656E64696E6700546573CC
:0E16450074204D6F6465000000000000000C72
:0E1653000000000078013E000C0002008A0139
:0E1661000C010100000000000000000000006D
:06166F0000000000000075
:011675000074
:0B0EC400A8811818C6B2E7C60210682B
:050ECF007A10E4FBFCB9
:0E0ED400E58225E0F582E58333F583EB33FB01
:0A0EE200EC33FCEB9541F5F0EC95C4
:090EEC00424006FCABF043820118
:030EF500DADD2221
:080EF80085824485834585F0E5
:040F000046AD41AE0B
:040F040042AF43A80D
:040F080044A945AA09
:010F0C00469E
:0E0F0D008D828E838FF012114EFBA3AD82AE4B
:0E0F1B0083888289838AF0EB121032A3A882A9
:0A0F2900A983EB70DF854482854543
:050F3300838546F02259
:060F3800120FDBBC0003F8
:030F3E0002110697
:080F4100EF60FA30D502B2D1D5
:080F4900E583B4FF0302111C53
:080F5100E582B4FF0302111C4C
:0B0F5900258340072482400B02110694
:080F6400248314500302111C48
:0E0F6C00F582EA8DF0A4A8F0EA8EF0A428F831
:0E0F7A00E435F0F9EB8DF0A428E935F0F9E448
:0E0F880033CA8FF0A429F9EA35F0FAEBF88E9F
:0E0F9600F0A429F9EA35F0FAE433FBEC8DF013
:0E0FA400A429F9EA35F0FAE43BFBE88FF0A44B
:0E0FB2002AFAEB35F0FBE433CCFD8EF0A42AD6
:0E0FC000FAEB35F0FBE43CFCED8FF0A42BFBCC
:0A0FCE00EC35F0FC20E703121009D7
:030FD8000210E51F
:0D0FDB00AA82AB83A2F73392D16002D2F755
:0E0FE800F582ACF0E58124F9F8E6FD08E6FE9E
:0E0FF6000886F008E6A2F73392D56002D2F723
:05100400F583AFF022AE
:0600A500E478FFF6D8FD2F
:02100900780469
:0E100B00EC700DC9CACBFCE58224F8F582D842
:02101900F122C2
:02101B0078203B
:0E101D0020E7111582C3E933F9EA33FAEB3309
:06102B00FBEC33FCD8ECE5
:01103100229C
:080083007901E94400601B7AD9
:05008B000190167578DC
:03009000BD75AA91
:0A00930000E493F2A308B800020590
:08009D00AAD9F4DAF275AAFFFA
:0E10320020F71030F6118883A88220F507F60B
:05104000A88375830088
:011045002288
:03104600F280F73E
:02104900F02293
:0B104B00E5828541F0A4C582C0F0855D
:0A10560042F0A4D0F025F0C5838518
:0810600041F0A42583F5832271
:03106800120FDB89
:09106B007900E583B58202800DD5
:051074005003121134CD
:08107900E583C395821211B258
:08108100E5D0C465D020E117A1
:0E108900EA2DFAEB3EFBEC3FFC50097401121D
:0610970011B2EC4480FCE4
:03109D000210E559
:0E10A000C3EA9DFAEB9EFBEC9FFC500FC3E4ED
:0D10AE0099F9E49AFAE49BFBE49CFCB2D1B2
:0610BB001210090210E50D
:0800AB007800E84400600A79C6
:0300B3000075AA2B
:0600B60000E4F309D8FC90
:0800BC0078BDE84400600C79F6
:0B00C40001900000E4F0A3D8FCD9FA82
:0D10C100AC83AB827A007900748E02117B43
:0C10CE00E4AC83AB82FAF9748E0211A826
:0B10DA007F8E1211FBF58385F082224F
:0610E500B98003EA13B319
:0E10EB004010EA2401FAE43BFBE43CFC500414
:0410F9007C80058270
:0910FD00BC000EBB000BBA000898
:08110600E4F5F0F583F5822207
:0E110E00A2D1E582138CF092F78B838A8222A5
:0D111C00E4F583F58275F080F4A2D1132272
:0B112900E4F583F58275F0C0747F22AE
:0E113400E582C583F582A2D133A2D592D113F4
:0C11420092D5ECCFFCEBCEFBEACDFA22FC
:030076007581464B
:0A0079001211F5E58260030200DEBB
:0E114E0020F71430F6148883A88220F507E6F7
:06115C00A8837583002248
:03116200E280F731
:03116500E49322EE
:02116800E02283
:08116A007F861211FBF58222C1
:09117200FCABF0AA83A982749E73
:0E117B00F582C2D1EC30E716D2D1E9F424019E
:0E118900F9EAF43400FAEBF43400FBECF43431
:0211970000FC5A
:061199001210090210E52E
:09119F00FCABF0AA83A982749E46
:0211A800C2D1B2
:0811AA00F5821210090210E5A4
:0911B2006040F82582500274FF30
:0E11BB00F582E824F8501ECCCBCAF9E4CC240F
:0E11C900F85014CBCAF9E4CB24F8500BCAF945
:0911D700E4CA24F8500379002257
:0511E00024086010F876
:0E11E500C3EC13FCEB13FBEA13FAE913F9D881
:0111F300F10A
:0111F40022D8
:0411F50075820022DD
:0211F9007F9ED7
:0911FB0012122030D1030211068A
:0E120400C3EF9582500974FFF5F0F583F58273
:0112120022B9
:0512130079001211B288
:0812180089828A838BF0EC222D
:0D122000AA82AB83A2F73392D16002D2F70D
:05122D00F582ACF02287
:00000001FF
